:020000040000FA
:10000000680200209D020000A5020000A702000077
:10001000A9020000AB020000AD02000000000000D9
:10002000000000000000000000000000AF0200001F
:10003000B102000000000000B3020000B5020000A1
:10004000B7020000B7020000B7020000B7020000CC
:10005000B7020000B7020000B7020000B7020000BC
:10006000B7020000B702000055030000B70200000D
:10007000B7020000B7020000B7020000B70200009C
:10008000B7020000B7020000B7020000B70200008C
:10009000B7020000B7020000B7020000B70200007C
:1000A000B7020000B7020000B7020000B70200006C
:1000B000B7020000B7020000B7020000B70200005C
:1000C000B7020000B7020000B7020000B70200004C
:1000D000B7020000B7020000B7020000B70200003C
:1000E000B7020000B7020000B7020000B70200002C
:1000F000B7020000B7020000B7020000B70200001C
:10010000B7020000B7020000B7020000B70200000B
:10011000B7020000B7020000B7020000B7020000FB
:10012000B7020000B7020000B7020000B7020000EB
:10013000B7020000B7020000B7020000B7020000DB
:10014000B7020000B7020000B7020000B7020000CB
:100150000000000000000000B7020000B70200002D
:10016000B7020000B702000000000000B702000064
:10017000B7020000B7020000B7020000B70200009B
:10018000B7020000B7020000B7020000B70200008B
:10019000B7020000B7020000B7020000B70200007B
:1001A000B7020000B7020000B7020000B70200006B
:1001B0000000000000000000B7020000B7020000CD
:1001C000B702000000000000B7020000B702000004
:1001D000B7020000B7020000B7020000B70200003B
:1001E000000000000000000000000000000000000F
:1001F00000000000B7020000B702000000F002F8A3
:1002000000F03CF80AA090E8000C82448344AAF174
:100210000107DA4501D100F031F8AFF2090EBAE872
:100220000F0013F0010F18BFFB1A43F0010318472A
:1002300098070000B8070000103A24BF78C878C1BA
:10024000FAD8520724BF30C830C144BF04680C60DC
:10025000704700000023002400250026103A28BF24
:1002600078C1FBD8520728BF30C148BF0B60704728
:100270001FB500F09BFA1FBD10B510BD00F02FF8A0
:100280001146FFF7F5FF00F0B5F900F04DF803B4A3
:10029000FFF7F2FF03BC00F055F800000948804763
:1002A00009480047FEE7FEE7FEE7FEE7FEE7FEE758
:1002B000FEE7FEE7FEE7FEE704480549034A054B73
:1002C00070470000B1050000FD010000680000203B
:1002D000680200206800002070477047704775462C
:1002E00000F02CF8AE4605006946534620F00700A2
:1002F000854618B020B5FFF7DFFFBDE820404FF07E
:1003000000064FF000074FF000084FF0000B21F0FF
:100310000701AC46ACE8C009ACE8C009ACE8C009CC
:10032000ACE8C0098D46704710B50446AFF30080B5
:100330002046BDE81040FFF7AABF00000048704704
:100340000800002001491820ABBEFEE7260002008D
:100350007047000010B54FF08070006B0122402103
:10036000036C0648984704464FF08070006B2246A5
:100370004021436C0148984710BD000000800240B6
:100380002DE9F05F0F46C0F3C202824EDFF808A2EB
:100390000146C0F384184FF4004B022A40D0062ACD
:1003A00043D0072A46D011F0380F47D00024254605
:1003B00011F4605F61D0304600F00AF90146504602
:1003C000CAF8C010DAF8601121F40001CAF860110F
:1003D00050F8B01F714A114041F000410160002FF8
:1003E0007ED0B4FBF7F606B1761E701CB4FBF0F7B6
:1003F000384600F0EDF801465046CAF8C01050F8F3
:10040000B01F45EA86220A4342F00041016050468F
:1004100050F8B01F21F4700101603846BDE8F09F2C
:10042000344600254FF00508C2E747F230544FF438
:100430000015BDE75C464FF48005B9E7B8F10A0F37
:1004400020D2574BDAF87C004FF04C7553F8284017
:10045000534620F01C00B8F1030F01DB40F0100000
:10046000D8674FF4002001E0401E0BD0D3F850C0F5
:100470005FEACC5CF8D528B19AE711F0380F03D0C9
:10048000022A01D00020C9E7C1F30269454800F003
:100490009FF85646CAF8C00056F8B00F42490840C7
:1004A00040F0004030603E490839781E51F829106C
:1004B0000844B0FBF7F23068284346F8B40B09EB68
:1004C000C90000EB40013648283000EBC10008EBC2
:1004D000480100EB81035B6846F87C39F36F00E06C
:1004E00055E06FF0FF0707EB02221343F36750F864
:1004F0002100B16F01F400010843B067B06FC0F391
:100500008921B06FC0F3090CF06FC0F30427F06FBE
:100510004A0900F01F00401CB4FBF0F0534201EB0D
:10052000431100FB0CF3424303EB5212484302EB2E
:1005300090207F1CB0FBF7F04708384600F048F8E1
:1005400046F8280CB06FE83E000206D5D6F8B00099
:1005500040F08040C6F8B00005E0D6F8600140F4F5
:100560000000C6F860015846D6F86811C90702D1E4
:10057000401E0028F8DC40B156F8B00F0B49284364
:10058000084340F00040306041E700273FE7002685
:100590002EE700000024F40000E00F40FF0300EF0E
:1005A000C007000040787D0100FC0FE00100001052
:1005B0000448006840F4700002490860024803499A
:1005C0000860704788ED00E00024F400040000207B
:1005D000074A002152F83130834203D302EBC100B5
:1005E00040687047491C0629F4D30020704700007A
:1005F0009809000000246425644943F61000FFF7C1
:10060000BFFE634908604FF08070406C81696148AB
:10061000884700BF4FF08070406CD0F88C105D4868
:1006200088470028F6D04FF08070006B0021426FA1
:10063000594890474FF08070406C8169574888470F
:1006400000BF4FF08070406CD0F88C105348884742
:100650000028F6D04FF08070006A816E50488847BD
:100660004FF08070006A816E4E4888474FF080706E
:10067000006A0321426C4C4890474FF08070006B39
:10068000022240214368444898474FF08070006B35
:100690004FF47A42402183683F4898474FF080707A
:1006A000006B4021C2683C48904786084FF080703C
:1006B000006B324640210368374898474FF08070FE
:1006C000006B4021C2683448904786084FF0807024
:1006D000006B3246412103682F4898474FF08071E4
:1006E000896C486880474FF08070006B0F22402172
:1006F000836B294898474FF08070806C01681A20FE
:1007000088474FF08070006B2246402103682248E2
:1007100098474FF08070006B0121826C1E48904713
:100720004FF08070006B01220321C36A1A4898477A
:100730004FF08070006B402102691748904724E019
:100740002C444CF62030844204D342F6E0646FF02F
:10075000630502E00CB9002464254FF08070006B43
:100760002246402103680C4898474FF08070006B88
:10077000224641210368084898474FF08070406C3A
:10078000D0F8881042F210708847D9E70024F400AE
:1007900000000020004000F000800240050800F04A
:1007A000060005000604050000D005404FF040702B
:1007B000E1EE100A7047000000688909001C4E0E27
:1007C000404B4C00808D5B0000127A0080969800B0
:1007D000001BB7000024F40080A81201002D310195
:1007E00000366E0140787D014000000000000000EE
:1007F00000010000A0000000020000000001000055
:10080000280000000000000000010000200000009F
:100810000000000000010000500000000200000085
:1008200000010000140000000000000000010000B2
:10083000A0000000080000000001000010000000FF
:10084000000000000001000028000000020000007D
:100850000001000040000000040000000001000052
:100860000000000000000000000000000000000088
:100870000000000000000000000000000000000078
:100880000000000000000000000000000000000068
:100890000000000000000000000000000000000058
:1008A0000000000000000000000000000000000048
:1008B0000000000000000000000000000000000038
:1008C0006000000000000000000100005000000077
:1008D00000000000000100003C00000000000000DB
:1008E00000010000300000000000000000010000D6
:1008F0002800000000000000000100001E000000B1
:100900000000000000010000500000000200000094
:1009100000010000180000000000000000010000BD
:100920001400000000000000000100006000000052
:1009300004000000000100000000000000000000B2
:1009400000000000000000000000000000000000A7
:100950000000000000000000000000000000000097
:100960000000000000000000000000000000000087
:100970000000000000000000000000000000000077
:100980000000000000000000000000000000000067
:1009900000000000000000000024F40030003000DF
:1009A000005A62029100910000879303D200D200A6
:1009B00000B4C4041301130100E1F505540154010E
:1009C000000E270795019501E809000000000020AE
:1009D0000800000038020000F009000008000020B4
:1009E0006002000054020000000000000024F40037
:04000005000001FDF9
:00000001FF
