:020000040000FA
:1000000088430020150200001D02000019030000B3
:100010002102000023020000250200000000000071
:1000200000000000000000000000000027020000A7
:10003000290200000000000067020000D106000055
:100040002F0200002F0200002F0200002F020000EC
:100050002F0200002F0200002F0200002F020000DC
:100060002F0200002F0200002F0200002F020000CC
:100070002F0200002F0200002F0200002F020000BC
:100080002F0200002F0200002F0200002F020000AC
:100090002F0200002F0200002F0200002F0200009C
:1000A0002F0200002F0200002F0200002F0200008C
:1000B0002F0200002F0200002F0200002F0200007C
:1000C0002F0200002F0200002F0200002F0200006C
:1000D0002F0200002F0200002F0200002F0200005C
:1000E0002F0200002F0200002F0200002F0200004C
:1000F0002F0200002F0200002F0200002F0200003C
:100100002F0200002F0200002F0200002F0200002B
:100110002F0200002F0200002F0200002F0200001B
:100120002F0200002F0200002F0200002F0200000B
:100130002F0200002F0200002F0200002F020000FB
:100140002F0200002F0200002F0200002F020000EB
:1001500000000000000000002F0200002F0200003D
:100160002F0200002F020000000000002F020000FC
:100170002F0200002F0200002F0200002F020000BB
:100180002F0200002F0200002F0200002F020000AB
:100190002F0200002F0200002F0200002F0200009B
:1001A0002F0200002F0200002F0200002F0200008B
:1001B00000000000000000002F0200002F020000DD
:1001C0002F020000000000002F0200002F0200009C
:1001D0002F0200002F0200002F0200002F0200005B
:1001E000000000000000000000000000000000000F
:1001F000000000002F0200002F020000DFF810D0E6
:1002000000F010F90048004749040000AFF30080F7
:10021000884300200648804706480047FEE7FEE77F
:10022000FEE7FEE7FEE7FEE7FEE7FEE7FEE7FEE7A6
:1002300021070000FD010000EFF3108072B6704747
:1002400080F310887047424A1368012B04D04FF0A6
:10025000010313603F4A10603F4A11603F484FF06E
:10026000805101607047EFF3108272B63848016820
:1002700051B34FF0000101603648016891B1EFF3CE
:1002800009811EF0100F08BF21ED108B21E9F00F3E
:100290004FF000041EF0100F08BF012441F8044D78
:1002A000006801602C490968096808C9B1E8F00FC5
:1002B000002B18BFB1EC108B81F309884EF0100EA3
:1002C000002B18BF2EF0100E82F310884EF0040E93
:1002D000704721490860EFF3148222F0040282F390
:1002E00014881C494FF00000086019494FF00100C4
:1002F00008601B481B49D0F8002041EA0201016058
:1003000016484FF08051016017480068006880F37C
:10031000088861B662B670471EF0040F0CBFEFF399
:100320000880EFF3098020E9F00F40F804ED40F871
:1003300004ED1EF0040F0CBF80F3088880F30988D9
:1003400000B501F08BFF5DF804EB4EF0040E704732
:10035000440000203C0000204000002004ED00E0AC
:1003600020ED00E00000FFFF08ED00E040EA01039F
:100370009B0703D009E008C9121F08C0042AFAD25B
:1003800003E011F8013B00F8013B521EF9D270471F
:10039000D2B201E000F8012B491EFBD270470022C7
:1003A000F6E710B513460A4604461946FFF7F0FF74
:1003B000204610BD421E12F8013F002BFBD111F860
:1003C000013B02F8013B002BF9D1704710B5044600
:1003D00004E00B7800F8013B03B1491C521EF8D22F
:1003E000204610BD421C10F8011B0029FBD1801AC9
:1003F0007047034611F8012B00F8012B002AF9D1B0
:100400001846704730B505460020034600E05B1CE7
:10041000934205D2EC5CC85C201A01D1002CF6D1C5
:1004200030BD0000064C074D06E0E06840F00103D7
:1004300094E8070098471034AC42F6D3FFF7E2FE89
:10044000CC430000EC43000010B503F019FB002082
:1004500010BD000010B54FF08070406C81690E48EF
:10046000884700BF4FF08070406CD0F88C100A486D
:1004700088470028F6D04FF08070006A0321C26BD5
:10048000064890474FF08070006A002203210368FD
:100490000248984710BD00000C0800F000400640DC
:1004A0002DE9F05F0F46C0F3C202824EDFF808A2CA
:1004B0000146C0F384184FF4004B022A40D0062AAC
:1004C00043D0072A46D011F0380F47D000242546E4
:1004D00011F4605F61D0304600F032F901465046B9
:1004E000CAF8C010DAF8601121F40001CAF86011EE
:1004F00050F8B01F714A114041F000410160002FD7
:100500007ED0B4FBF7F606B1761E701CB4FBF0F794
:10051000384600F015F901465046CAF8C01050F8A8
:10052000B01F45EA86220A4342F00041016050466E
:1005300050F8B01F21F4700101603846BDE8F09F0B
:10054000344600254FF00508C2E747F230544FF417
:100550000015BDE75C464FF48005B9E7B8F10A0F16
:1005600020D2574BDAF87C004FF04C7553F82840F6
:10057000534620F01C00B8F1030F01DB40F01000DF
:10058000D8674FF4002001E0401E0BD0D3F850C0D4
:100590005FEACC5CF8D528B19AE711F0380F03D0A8
:1005A000022A01D00020C9E7C1F30269454800F0E2
:1005B000C7F85646CAF8C00056F8B00F424908407E
:1005C00040F0004030603E490839781E51F829104B
:1005D0000844B0FBF7F23068284346F8B40B09EB47
:1005E000C90000EB40013648283000EBC10008EBA1
:1005F000480100EB81035B6846F87C39F36F00E04B
:1006000055E06FF0FF0707EB02221343F36750F842
:100610002100B16F01F400010843B067B06FC0F36F
:100620008921B06FC0F3090CF06FC0F30427F06F9D
:100630004A0900F01F00401CB4FBF0F0534201EBEC
:10064000431100FB0CF3424303EB5212484302EB0D
:1006500090207F1CB0FBF7F04708384600F070F898
:1006600046F8280CB06FE83E000206D5D6F8B00078
:1006700040F08040C6F8B00005E0D6F8600140F4D4
:100680000000C6F860015846D6F86811C90702D1C3
:10069000401E0028F8DC40B156F8B00F0B49284343
:1006A000084340F00040306041E700273FE7002664
:1006B0002EE700000024F40000E00F40FF0300EFED
:1006C000043E000040787D0100FC0FE001000010B6
:1006D00010B502F05BFA10BD10B50E490E48FFF7D9
:1006E000DFFE0E490860084600684FF47A71B0FBDF
:1006F000F1F44FF08070806B4169204688474FF0DD
:100700008071896BC86880474FF08071896B486839
:10071000804710BD40787D01400200F1E0000020DC
:100720000448006840F47000024908600248034928
:100730000860704788ED00E00024F40020000020ED
:10074000074A002152F83130834203D302EBC10043
:1007500040687047491C0629F4D300207047000008
:10076000DC3F0000014609B900207047C8B220B143
:10077000C8B20E4A105C401CF7E701F47F4028B174
:100780000A48C1F30722805C0930EEE701F47F00DC
:1007900028B10648C1F30742805C1130E5E7034801
:1007A00000EB116000781930DFE70000DA3C000050
:1007B00002E008C8121F08C1002AFAD1704770472A
:1007C000002001E001C1121F002AFBD170472DE972
:1007D000F04389B0064688469146002400E0641C38
:1007E000305D202804D0305D092801D04445F6D37F
:1007F00024B94FF0FF3009B0BDE8F0832146304600
:1008000001F0E8F9054615B94FF0FF30F3E7202174
:1008100001A8FFF7C4FD01AA4146304601F04AFA9B
:10082000074617B94FF0FF30E5E701A93846A8475A
:10083000C9F800000020DEE72DE9FC5F04468B4686
:1008400015461E46DDE90C9ADDE90E7804F1140028
:100850004060006000BF1C346560A660C4F80C9066
:10086000C4F810A02321D4E9030201F0F0FFD4E979
:10087000033C63441A1F0F4BD4E9010101F004FE4D
:100880002060A77667760020E061C4F82080C4F875
:100890002480606120766065A0651C3C0090234642
:1008A000054A2146019004F1440002F09CFE00201C
:1008B000BDE8FC9FCD310000F93300002DE9F04781
:1008C00004460E4617469846DDF8209084F80990B5
:1008D000607A20F001006072E66127620020A06269
:1008E000C4F82480002506E004F1140101EBC500E2
:1008F00001F07AFE6D1C012DF6DBBDE8F08770B5C6
:100900000546002406E005F1140101EBC40001F0E6
:10091000BEFE641C012CF6DB70BD70B50446FFF70B
:100920008BFC0546206F10B12046216F8847284672
:10093000FFF786FC70BD000010B520A001F036FE68
:100940002148017821A001F031FE1F48007800F015
:10095000010010B123A001F029FE1B48007800F02F
:10096000020010B122A001F021FE1748007800F02B
:10097000040010B121A001F019FE1348007800F026
:10098000080010B121A001F011FE0F48007800F01E
:10099000100010B120A001F009FE0B48007800F013
:1009A000800030B108480F3001681DA001F0FEFD45
:1009B00002E01FA001F0FAFD10BD00006275732077
:1009C0006661756C743A0A0029ED00E05343425F9A
:1009D000434653525F424653523A3078253032589C
:1009E00020000000494255534552522000000000AB
:1009F000505245434953455252200000494D5052F0
:100A0000454349534552522000000000554E53546F
:100A10004B4552522000000053544B455252200087
:100A20005343422D3E424641523A253038580A003F
:100A30000A00000070B504460D4600F063FC00207B
:100A400070BD70B504460D4600F0BAFD002070BDC3
:100A500010B51548006890F82100C0F3400020B997
:100A6000002012490870084610BD1148006840B1C6
:100A70004FF480720E4801680C48FFF7A7FC0B4842
:100A8000F2E701F015F920B10AA10848FFF7B1FC1F
:100A900003E00AA10548FFF7ACFC0AA10348FFF7F1
:100AA00089FC0248E0E7000034000020E800002054
:100AB000380000206D7368200000000066696E73C6
:100AC000682000003E00000010B501F083FB10BD5F
:100AD0000549096891F8211060F34101024A126842
:100AE00082F821107047000034000020024A106094
:100AF000024A1160704700002400002028000020F6
:100B00007CB5002517491848FFF7F0FF7821012030
:100B100001F076FA154908600846006820B914A06B
:100B200001F044FD681E7CBD0A2015214FF480634E
:100B30000022CDE90010144914A002F0B8FA0446CE
:100B400000231A4613A10948006802F0BBF80120EF
:100B5000FFF7BEFF1CB115B9204602F015FC0020BE
:100B6000E1E70000CC430000F44200003400002024
:100B70006E6F206D656D6F727920666F722073687D
:100B8000656C6C0A000000009D0B000074736865C2
:100B90006C6C00007368727800000000E94800681F
:100BA00090F8210020F00100401CE649096881F816
:100BB0002100FFF74DFF054601F0F8FCC1E1FFF70A
:100BC00083FF0446002C00DABBE11B2C05D1012079
:100BD000DC49096881F82000B3E1DA48006890F840
:100BE000200001280DD15B2C05D10220D5490968D0
:100BF00081F82000A5E10020D249096881F8200091
:100C000045E0D048006890F8200002283FD100203D
:100C1000CC49096881F82000412C00D191E1422C97
:100C200000D18EE1442C11D1C6480068B0F87400A0
:100C300058B1C5A001F0BAFCC2480068B0F8740011
:100C4000401EC0490968A1F874007AE1432C1ED106
:100C5000BC480068B0F87400BA490968B1F872106D
:100C6000884213DAB7480068B0F87420B5480068C5
:100C70002230815CB5A001F099FCB2480068B0F860
:100C80007400401CAF490968A1F8740059E10CB127
:100C9000FF2C00D155E1092C1FD1002503E0AAA0AB
:100CA00001F084FC6D1CA7480068B0F87400A842ED
:100CB000F5DCA4480068223002F0F8FEA148006884
:100CC0002230FFF78FFB80B29E490968A1F87200BD
:100CD0009C490968A1F8740033E17F2C01D0082CED
:100CE0006ED198480068B0F8740000B929E19548C1
:100CF0000068B0F87200401E92490968A1F87200BD
:100D000090480068B0F87400401E8E490968A1F848
:100D100074008C480068B0F872008A490968B1F81C
:100D2000741088423FDD874B1B68B3F87230854EE4
:100D30003668B6F874609A1B824B1B68B3F874303F
:100D40005B1C804E3668223699197E4B1B68B3F8BF
:100D500074607C4B1B682233F01801F057FD0022B1
:100D600078480068B0F87210764800682230425423
:100D700074480068B0F87420724800682230111876
:100D800073A001F013FC6F480068B0F8745003E0E2
:100D90006DA001F00BFC6D1C6A480068B0F8720091
:100DA000A842F5DA0BE06CA001F000FC00216548D8
:100DB0000068B0F872206348006822308154C0E0B7
:100DC0000D2C01D00A2C2BD100F072FF012812D17A
:100DD0005C48006890F8210000F0010010B15FA0AD
:100DE00001F0E4FB57480068B0F8721055480068FD
:100DF000223000F0B9FEFFF72BFE054601F0D6FBCE
:100E00005021504800682230FFF7C9FA00204D49B0
:100E10000968A1F872004B490968A1F8740090E0D4
:100E200048480068B0F87200502804DB00204549AB
:100E30000968A1F8720043480068B0F8740041499D
:100E40000968B1F87210884245DA3E4B1B68B3F866
:100E500072303C4E3668B6F874609A1B394B1B688A
:100E6000B3F87460374B1B682233F118354B1B689D
:100E7000B3F874305B1C334E36682236981901F093
:100E8000C5FC30480068B0F874202E480068223055
:100E900084542C48006890F8210000F0010050B103
:100EA00028480068B0F874202648006822301118DD
:100EB0002BA001F07BFB23480068B0F8745003E0DE
:100EC00021A001F073FB6D1C1E480068B0F8720091
:100ED000A842F5DC12E01B480068B0F872201948FF
:100EE0000068223084541748006890F8210000F010
:100EF000010018B1214615A001F058FB002411484B
:100F00000068B0F87200401C0E490968A1F8720030
:100F10000C480068B0F87400401C0A490968A1F840
:100F2000740008480068B0F87200502808DB002000
:100F300004490968A1F8720002490968A1F874001F
:100F400000BF3CE6340000200800000025630000DC
:100F50000825732020080000082008000A0000006F
:100F60002573000010B51448006800F0020010B1AD
:100F700012A001F01BFB1048006800F0804088B10F
:100F80000D48C01E007808B1FFF7D6FC0A48001FC4
:100F9000007808B100F024FD0748801E008808B1E1
:100FA00002F022FE0448006800F0004010B109A0E1
:100FB00001F0FCFA10BD00002CED00E06661696CE8
:100FC000656420766563746F722066657463680A71
:100FD000000000006465627567206576656E740ABE
:100FE0000000000010B502A001F0E0FA002010BDE2
:100FF00048656C6C6F2052542D5468726561642191
:101000000A00000000BF4FF0FF310C48006801F0FB
:10101000BDFC0B480068401C09490860142002F020
:101020006EF8084800680A300649086003480068FE
:1010300001F04AFC02F0F0F9E5E70000140000209E
:10104000180000201C00002000BF4FF0FF310948AD
:10105000006801F09BFC084802680848016808A085
:1010600001F0A4FA0348006801F02EFC0A2002F007
:1010700046F8EAE7140000201C00002018000020B9
:10108000613D25642C623D25640A000010B50DA069
:1010900001F08CFA104804680DE002220FA12068CC
:1010A000FFF7B0F900B905E00DA0D4E9001201F096
:1010B0007DFA00BF0C340E4800688442EDD3002056
:1010C00010BD00002D2D46756E6374696F6E204C47
:1010D0006973743A0A000000240000205F5F00007A
:1010E000252D313673202D2D2025730A0000000098
:1010F000280000202DE9F04704460D4616461F46FD
:10110000284601F0FBFC814609F10408C4F8008080
:1011100025726660E76000202061BDE8F0872DE958
:10112000F84F07460C464FF0000A00202061E068A7
:1011300008B1207A10B90020BDE8F88FD4F80080FB
:101140001FB945464FF0010A00E03D46FFF774F82D
:101150000090BAF1000F0ED1A5F10C0B9BF808001E
:1011600020F08000217A884204D00098FFF768F8C8
:101170000020E1E700BF0026D4F804900BE02D68C2
:10118000454501D1002507E0761C49F8045BE0687D
:10119000B04200D100E0F2E700BF0098FFF750F83E
:1011A00026612846C8E700002DE9F04F91B00027DE
:1011B0000FF2D409082304AA05210CA8FFF79AFF0F
:1011C0004FF008084A46414631A001F0EFF9404689
:1011D00000F0E8FD37A001F0E9F900BF0CA938469E
:1011E000FFF79DFF0746002545E004A850F82500BD
:1011F000A0F10C06FFF720F88346307A20F080003B
:101200009DF83810884203D05846FFF719F831E0AE
:101210005846FFF715F8344604F1140001F003FABC
:10122000B8B904F1140001F016FA8246208C618CE2
:1012300023460822CDE9010A0091414624A001F08D
:10124000B5F904F1140002F04DFC27A001F0AEF94D
:101250000FE004F1140001F0FEF98246208C618C4D
:1012600023460822CDE9010A009141461FA001F062
:101270009DF900BF6D1C1098A842B6DC002FADD1BF
:10128000002011B0BDE8F08F6D61696C626F78006D
:10129000252D2A2E7320656E7472792073697A6504
:1012A0002073757370656E64207468726561640A7A
:1012B00000000000202D2D2D2D20202D2D2D2D2046
:1012C0002D2D2D2D2D2D2D2D2D2D2D2D2D2D0A009E
:1012D000252D2A2E2A7320253034642020253034F1
:1012E000642025643A0000000A000000252D2A2E03
:1012F0002A7320253034642020253034642025646E
:101300000A00000010B50848016808A001F04EF975
:101310000B4801680BA001F049F90F4801680FA0C4
:1013200001F044F910BD000060000020746F74618A
:101330006C206D656D6F72793A2025640A0000009B
:101340006400002075736564206D656D6F7279208F
:101350003A2025640A000000680000206D61786969
:101360006D756D20616C6C6F6361746564206D6573
:101370006D6F72793A2025640A0000002DE9F04F64
:1013800091B000270FF29C09082304AA03210CA89E
:10139000FFF7B0FE4FF008084A46414623A001F08F
:1013A00005F9404600F0FEFC29A001F0FFF800BF5F
:1013B0000CA93846FFF7B3FE0746002629E004A82B
:1013C00050F82600A0F10C04FEF736FF8346207A81
:1013D00020F080009DF83810884203D05846FEF770
:1013E0002FFF15E05846FEF72BFF254605F11400A8
:1013F00001F031F98246E87F0822296A2B46CDE9BF
:10140000020ACDE90021414619A001F0CFF800BF42
:10141000761C1098B042D2DC002FC9D1002011B048
:10142000BDE8F08F6D75746578000000252D2A2EBB
:10143000732020206F776E65722020686F6C6420A7
:1014400073757370656E64207468726561640A00F8
:10145000202D2D2D2D2D2D2D2D202D2D2D2D202DE3
:101460002D2D2D2D2D2D2D2D2D2D2D2D2D0A000029
:10147000252D2A2E2A7320252D382E2A732025303B
:1014800034642025640A00002DE9F04F8FB0002756
:101490000FF2CC09082302AA02210AA8FFF72AFEAC
:1014A0004FF008084A46414630A001F07FF8404618
:1014B00000F078FC34A001F079F800BF0AA93846A2
:1014C000FFF72DFE0746002541E002A850F8250051
:1014D000A0F10C06FEF7B0FE8346307A20F08000C3
:1014E0009DF83010884203D05846FEF7A9FE2DE043
:1014F0005846FEF7A5FE344604F1140001F093F8B7
:10150000A8B904F1140001F0A6F88246A08B234686
:1015100008224146CDE9000A21A001F047F804F174
:10152000140002F0DFFA17A001F040F80DE004F11A
:10153000140001F090F88246A08B23460822414611
:10154000CDE9000A1AA001F031F800BF6D1C0E9819
:10155000A842BADC002FB1D100200FB0BDE8F08F57
:1015600073656D6170686F7265000000252D2A2E0D
:1015700073207620202073757370656E6420746804
:10158000726561640A000000202D2D2D202D2D2D67
:101590002D2D2D2D2D2D2D2D2D2D2D0A0000000052
:1015A000252D2A2E2A7320253033642025643A0005
:1015B000252D2A2E2A7320253033642025640A0025
:1015C0002DE9F04FAFB04FF000090FF21C1B0823BC
:1015D00021AA012129A8FFF78DFD4FF0080A5A46DC
:1015E0005146434800F0E2FF504600F0DBFB41A0CB
:1015F00000F0DCFF00BF29A94846FFF790FD8146B7
:101600004FF0000865E021A850F82800A0F10C0573
:10161000FEF712FE2E90287A20F080009DF8AC1084
:10162000884203D02E98FEF70BFE50E07822294620
:1016300003A8FEF79BFE2E98FEF702FE2C4694F8B8
:10164000350023460822514600903AA000F0AEFF34
:1016500094F8340000F00F06012E03D138A000F0FA
:10166000A5FF15E0022E03D138A000F09FFF0FE088
:101670001EB939A000F09AFF0AE0042E03D139A068
:1016800000F094FF04E0032E02D139A000F08EFF99
:10169000A76A00E07F1C38782328FBD0D4E90A1021
:1016A000791A401A64214843E16AB0FBF1F00290D4
:1016B000216B206CCDE90001E369A06AC01AE36ADE
:1016C000C1181A462DA0029B00F070FF00BF08F160
:1016D00001082D98404596DCB9F1000F8BD1002010
:1016E0002FB0BDE8F08F000074687265616400007F
:1016F0000C400000202D2D2D20202D2D2D2D2D2DA9
:101700002D202D2D2D2D2D2D2D2D2D2D202D2D2D23
:101710002D2D2D2D2D2D2D20202D2D2D2D2D2D2020
:10172000202D2D2D2D2D2D2D2D2D2D202D2D2D0A26
:1017300000000000252D2A2E2A7320253364200066
:1017400020726561647920200000000020737573A9
:1017500070656E640000000020696E6974202020AE
:101760000000000020636C6F736520200000000003
:101770002072756E6E696E6700000000203078255B
:1017800030387820307825303878202020202530D7
:1017900032642525202020307825303878202530E7
:1017A00033640A002DE9F04790B000270FF2B40926
:1017B000082303AA0A210BA8FFF79CFC4FF0080896
:1017C0004A46414629A000F0F1FE404600F0EAFA00
:1017D00030A000F0EBFE00BF0BA93846FFF79FFCDE
:1017E000074600262DE003A850F82600A0F10C04BF
:1017F000FEF722FD8246207A20F080009DF834100A
:10180000884203D05046FEF71BFD19E05046FEF714
:1018100017FD2546D5E909012B460822CDE900012F
:10182000414625A000F0C2FE687A00F0010018B120
:1018300027A000F0BBFE02E028A000F0B7FE00BF2A
:10184000761C0F98B042CEDC002FC5D101F016FEF9
:101850000446214625A000F0A9FE002010B0BDE8F6
:10186000F087000074696D6572000000252D2A2E36
:10187000732020706572696F646963202020746929
:101880006D656F757420202020202020666C6167B4
:101890000A000000202D2D2D2D2D2D2D2D2D2D203C
:1018A0002D2D2D2D2D2D2D2D2D2D202D2D2D2D2D75
:1018B0002D2D2D2D2D2D0A00252D2A2E2A73203079
:1018C00078253038782030782530387820000000AE
:1018D0006163746976617465640A000064656163BC
:1018E000746976617465640A000000006375727241
:1018F000656E74207469636B3A3078253038780AE5
:10190000000000001CB54FF08070006A1021826B4F
:101910001F48904701211FA000F0BDFF1F4908602C
:101920000846006810B11EA000F040FE14200321FC
:101930004FF400730022CDE900101D491DA001F0F5
:10194000B6FB1E4908600846006820B108460068DA
:1019500001F01AFD02E04FF0FF301CBD14200421FD
:10196000CB010022CDE90010154916A001F09FFB24
:10197000164908600846006820B10846006801F072
:1019800003FD02E04FF0FF30E7E70020E5E700004D
:1019900000C005406D7574657800000014000020DB
:1019A0006D7574657820637265617465640A0A00F8
:1019B000051000006C656431000000000C00002080
:1019C000491000006C656432000000001000002027
:1019D00010B5044600F034FBFFF794FF10BD000083
:1019E00010B51CA000F0E2FD1F4801781FA000F018
:1019F000DDFD1D48007800F0010010B121A000F0CD
:101A0000D5FD1948007800F0020010B120A000F0C8
:101A1000CDFD1548007800F0080010B11FA000F0BF
:101A2000C5FD1148007800F0100010B11EA000F0B4
:101A3000BDFD0D48007800F0800030B10A480C3040
:101A400001681CA000F0B2FD02E01EA000F0AEFD97
:101A500010BD00006D656D206D616E61676520666B
:101A600061756C743A0A000028ED00E05343425F50
:101A7000434653525F4D4653523A307825303258E0
:101A8000200000004941434356494F4C20000000CC
:101A90004441434356494F4C200000004D554E539E
:101AA000544B4552522000004D53544B4552522046
:101AB000000000005343422D3E4D4D41523A253027
:101AC00038580A000A0000002DE9F0478146002638
:101AD000002799F8000028B90021084600F0A8F86E
:101AE000BDE8F0871B48046827E006221AA1206899
:101AF000FEF788FC00B11FE0206800F106084846A8
:101B0000FEF770FC8246524641464846FEF77AFC94
:101B100088B926B947463846FEF764FC0646414672
:101B2000384602F00AF80546B54200DA2E4641462C
:101B30000BA000F03BFD00BF0C340A480068844253
:101B4000D3D327B132463946484601F089F900BF60
:101B5000C6E70000240000205F5F636D645F000043
:101B600025730A002800002038B504460D4601E020
:101B7000641C6D1E2DB120782028F9D0207809280A
:101B8000F6D00DB9002038BD6A4629462046FEF73A
:101B90001EFE08B90098F6E7204600E0401C0178D8
:101BA000202902D001780029F8D1002101702146B6
:101BB00002A000F0FBFC4FF0FF30E4E725733A2071
:101BC000636F6D6D616E64206E6F7420666F756EED
:101BD000642E0A002DE9F04106460D460027104804
:101BE000046815E006220FA12068FEF70BFC00B187
:101BF0000DE02168881D2A463146FEF703FC28B90E
:101C0000A81D2168085C08B9A76805E000BF0C346E
:101C1000064800688442E5D300BF3846BDE8F0813D
:101C2000240000205F5F636D645F000028000020D7
:101C300070B505460E460FA000F0B8FC14480468C5
:101C40000EE0062213A12068FEF7DCFB00B106E0DF
:101C5000D4E90002811D11A000F0A8FC00BF0C34E3
:101C6000114800688442ECD310A000F09FFC0020D3
:101C700070BD000052542D54687265616420736811
:101C8000656C6C20636F6D6D616E64733A0A000061
:101C9000240000205F5F636D645F0000252D3136F6
:101CA00073202D2025730A00280000200A00000060
:101CB000012070472DE9F04782460E469046544673
:101CC0000025002755E003E000202070641C6D1CF7
:101CD0002078202802D02078092801D1B542F3D3FA
:101CE000082F12D326A000F061FC4FF0000906E097
:101CF00058F829102AA000F059FC09F10109B9454A
:101D0000F6D326A000F052FC35E0B54200D332E015
:101D1000207822281CD1641C6D1C48F827407F1CA9
:101D200009E020785C2804D16078222801D1641C65
:101D30006D1C641C6D1C2078222801D0B542F0D3A4
:101D4000B54200D317E000202070641C6D1C10E029
:101D500048F827407F1C01E0641C6D1C2078202877
:101D600004D02078092801D0B542F5D3B54200D37C
:101D700001E0B542A7D300BF3846BDE8F0870000B8
:101D8000546F6F206D616E7920617267732021201E
:101D90005765206F6E6C79205573653A0A00000014
:101DA0002573200010B5044602E004A000F0FEFBFD
:101DB000201EA4F10104F8D110BD00002D00000088
:101DC00030B51A4C436824681919884215D04B88DD
:101DD0009BB9174B1B6899420FD0164B1B688B425F
:101DE00001D1144B18604B684360104B1B68C31A39
:101DF0000E4D4C682D682C44A3600C4C83682468FD
:101E00001A19824211D053887BB90A4B1B6883424E
:101E100001D1084B1A6043685360044B1B68D31A06
:101E2000024D44682D682C44A36030BD540000204E
:101E3000580000205C0000202DE9F04F86B00D46D0
:101E40009C46DDE9106401960F9B04F04008B8F150
:101E5000000F02D0DFF8708101E0DFF87081CDF86B
:101E6000008004F01008B8F1000F01D024F0010444
:101E700004F00108B8F1000F02D04FF0300801E083
:101E80004FF02008C246002704F00208B8F1000F06
:101E900011D0002A02DA2D2752420CE004F0040887
:101EA000B8F1000F01D02B2705E004F00808B8F1C5
:101EB000000F00D02027002142B94FF0300B884698
:101EC000491C0DF1080909F808B01DE01AE0E146C7
:101ED000B9F10A0F08D14FF00A0BB2FBFBFE0BFB66
:101EE0001E28B2FBFBF202E002F00F08120900BF4D
:101EF000DDF8009019F808B08846491C0DF1080972
:101F000009F808B0002AE2D1B14200DD0E469B1B61
:101F100004F01108B8F1000F10D117B1002B00DD4B
:101F20005B1E06E0A84203D24FF0200880F8008034
:101F3000401CB3F10008A3F10103F3DC27B1A84270
:101F400000D207705B1E401C04F01008B8F1000FAF
:101F50000AD104E0A84201D280F800A0401CB3F1ED
:101F60000008A3F10103F5DC06E0A84203D24FF01C
:101F7000300880F80080401CB046761E8845F4DCAE
:101F800008E0A84205D20DF1080818F8018080F891
:101F90000080401CB1F10008A1F1010104DDDDF871
:101FA0000480B8F1000FECD106E0A84203D24FF054
:101FB000200880F80080401CB3F10008A3F1010361
:101FC000F3DC06B0BDE8F08FEB3D0000DA3D000029
:101FD0001CB514200A214FF480730022CDE90010B3
:101FE000044905A001F063F80446204601F0CCF94D
:101FF0001CBD0000D11900006D61696E0000000079
:1020000070B504460D4604FB05F000F049FB06469A
:102010002EB104FB05F20021304600F018FC3046DA
:1020200070BD000010B5044C02E020688047241DFC
:1020300002488442F9D310BDE0420000E8420000AB
:1020400010B5044C02E020688047241D02488442F9
:10205000F9D310BDE8420000F042000010B5FEF7D1
:10206000EBF8044604480088401C00B2024908808E
:102070002046FEF7E5F810BDC000002010B5FEF7C1
:10208000DBF804460C480088401E00B20A4908806C
:102090000846B0F9000000280ADC0020088020462D
:1020A000FEF7CEF80548006828B100F077FD02E0A1
:1020B0002046FEF7C5F810BDC0000020C400002077
:1020C00070B5054605B970BD1D480068854203D34B
:1020D0001C480068854200D3F5E7A5F10C044FF0D9
:1020E000FF31194800F02AFE608818B12088B0F549
:1020F000F55F08D015A000F059FA238862882146C0
:1021000019A000F053FA002060804FF4F5502080B1
:1021100021480068844201D21F4804600849606871
:102120000968611A401A1D490968081A1B490860A4
:102130002046FFF745FE044800F0D7FD00BFC2E788
:10214000540000205800002064040020746F2066B2
:10215000726565206120626164206461746120623F
:102160006C6F636B3A0A00006D656D3A203078251C
:102170003038782C207573656420666C61673A206E
:1021800025642C206D6167696320636F64653A2064
:102190003078253034780A005C000020640000208C
:1021A00000487047840500200048704784410020A3
:1021B00070B5FEF791FAFEF74DF9FFF733FFFFF721
:1021C000F3FF0446FFF7ECFF0546214600F062FEF0
:1021D00070BD000070B54FF0FF344FF08070406963
:1021E0000121C26C0C48904705464FF08070406951
:1021F000C16A0948884768B14FF080704069416BF7
:102200000548884704464FF0807040692946026DB2
:1022100001489047E0B270BD00C0004010B50446D0
:10222000FFF71CFF11E020780A2806D14FF08070DC
:1022300040690D2102680848904714F8011B4FF0CF
:102240008070406902680448904720780028EAD1ED
:10225000FFF714FF10BD000000C000402DE9F04161
:10226000054605F128062C1D3348006840B130466C
:1022700031490968884707460FB9BDE8F08100BFBA
:102280002EA0216C00F092F930A0616A00F08EF966
:1022900032A0A16A00F08AF934A0E16A00F086F960
:1022A00036A0216B00F082F938A0616800F07EF959
:1022B0003AA0A16800F07AF93CA0E16800F076F954
:1022C0003EA0216900F072F940A0616900F06EF94A
:1022D00042A0A16900F06AF944A0E16900F066F942
:1022E00046A0216A00F062F948A0616B00F05EF937
:1022F0004AA0A16B00F05AF94CA0E16B00F056F92E
:10230000287800F0040048B101F016F80746394675
:102310004AA000F04BF9FFF753F902E04FA000F09C
:1023200045F9287800F0100010B953A000F03EF9EC
:10233000FEF718FE00BFFEE7480000207073723AF7
:10234000203078253038780A000000007230303AAA
:10235000203078253038780A000000007230313A99
:10236000203078253038780A000000007230323A88
:10237000203078253038780A000000007230333A77
:10238000203078253038780A000000007230343A66
:10239000203078253038780A000000007230353A55
:1023A000203078253038780A000000007230363A44
:1023B000203078253038780A000000007230373A33
:1023C000203078253038780A000000007230383A22
:1023D000203078253038780A000000007230393A11
:1023E000203078253038780A000000007231303A09
:1023F000203078253038780A000000007231313AF8
:10240000203078253038780A000000007231323AE6
:10241000203078253038780A00000000206C723AAD
:10242000203078253038780A000000002070633AA8
:10243000203078253038780A000000006861726426
:10244000206661756C74206F6E20746872656164BB
:102450003A2025730D0A0D0A0000000068617264BD
:10246000206661756C74206F6E2068616E646C65A7
:10247000720D0A0D0A000000465055206163746910
:102480007665210D0A000000F0B504460D4616469B
:10249000301D20F0070044380146002203E00D4FB4
:1024A00041F82270521C112AF9D34D624FF0000CF2
:1024B000C1F828C0C1F82CC0C1F830C0C1F834C080
:1024C0008B63CC634FF0807CC1F840C000270F6065
:1024D000F0BD0000EFBEADDE10B5FDF7ADFE044669
:1024E00004480078401C034908702046FDF7A8FE08
:1024F00010BD00005000002010B5FDF79DFE044601
:1025000004480078401E034908702046FDF798FEF5
:1025100010BD00005000002070B504462068A0F1F6
:102520001405284600F0EAFE002070BD2DE9F041B8
:1025300005460C469046204600F03CFFB8F1000FDF
:1025400003D0B8F1010F23D105E004F114012846AE
:1025500000F062F81DE02E680FE0A6F1140794F871
:10256000350097F83510884206DA04F1140107F1B6
:10257000140000F051F802E03668AE42EDD100BF21
:10258000AE4204D104F11401284600F045F800E001
:1025900000BF00BF0020BDE8F08110B5044604F183
:1025A000140000F01BF8002010BD00000FB438B577
:1025B00005A80090FF210848009B049A01F0B8F894
:1025C0000446FF2C00D9FF240348FFF727FE002014
:1025D000009038BC5DF814FB64030020406000608C
:1025E000704740600060704740600060704702685C
:1025F000516002680A60016048607047026851607B
:1026000002680A60016048607047026851600268B1
:102610000A600160486070474268116042684A6021
:1026200041600860704701460868884201D1012076
:1026300070470020FCE701460868884201D101206C
:1026400070470020FCE701460868884201D101205C
:1026500070470020FCE7014600200A4601E01268AE
:10266000401C13688B42FAD17047D0E900215160B9
:10267000D0E900121160406000607047D0E900218D
:102680005160D0E900121160406000607047D0E9ED
:1026900000215160D0E90012116040600060704775
:1026A0002DE9F041054615B90020BDE8F081E81C90
:1026B00020F003054E480068854201D90020F4E768
:1026C0000C2D00D20C254FF0FF314A4800F036FBAC
:1026D0004948006849490968461A7EE04748006849
:1026E00084196088002874D106F10C006168081A0A
:1026F000A8426ED306F10C006168091A05F11800B2
:10270000814230D306F10C0000EB05083B4800681D
:1027100000EB08074FF4F55038800020788060689F
:102720007860BE60C4F80480012060803048796819
:1027300000680C30814205D0304978680968084447
:10274000C0F808802E48016805F10C0008442C49A7
:1027500008602C4800680968884219D22848006837
:102760002849086014E001206080244960680968F5
:10277000611A401A22490968084421490860214821
:1027800000680968884203D21D4800681D49086036
:102790004FF4F550208018480068844212D107E0B9
:1027A00015480068406815490968084412490860DE
:1027B00011480068408828B10F480068124909682C
:1027C0008842EDD10B4800F090FA04F10C006CE760
:1027D000FFE70A4800683044466805480068401B27
:1027E000B0423FF67BAF034800F07FFA00205CE781
:1027F00060000020640400205C00002054000020E1
:1028000064000020680000205800002070B50C46CD
:10281000014623468B4210D29D188D420DD911449A
:10282000134405E05D1E2B462E784D1E29462E7062
:10283000151EA2F10102F5D108E003E013F8015BD7
:1028400001F8015B151EA2F10102F7D170BDF0B5D0
:102850000C460546E6B2042A15D300F0030797B9E3
:10286000014646EA062343EA034304E008C108C1DF
:1028700008C108C1103A102AF8D201E008C1121F9D
:10288000042AFBD20D4601E005F8016B171EA2F1E8
:102890000102F9D1F0BD70B505460E462946032068
:1028A00000F0E1F804460CB9204670BD2046FFF761
:1028B00074FE0120A08300202062FF20A07700206A
:1028C000E07766722046F0E72DE9F04104460027E4
:1028D00000F032FD0546FDF7AFFC0646206AA8422F
:1028E00007D0781E28633046FDF7AAFC781EBDE8A5
:1028F000F081E07F401EE077E07F00283DD1A07F9F
:10290000216A91F83510884205D004F11E02022197
:10291000206A00F088FB04F11400FFF78CFEC8B9B0
:102920006069A0F11405256295F83500A077E07F75
:10293000FF2803DAE07F401CE07705E03046FDF732
:102940007FFC6FF00200D2E704F11400FFF7E4FD12
:10295000012712E0A08B4FF6FF71884203DAA08BAB
:10296000401CA08305E03046FDF76AFC6FF00200D2
:10297000BDE700202062FF20A0773046FDF760FC15
:10298000012F01D100F00AF90020B0E773B5044629
:1029900000F0D2FC0546FDF74FFC064600202863F8
:1029A000206AA8420CD1E07FFF2803DAE07F401CB8
:1029B000E07753E03046FDF743FC6FF002007CBD4A
:1029C000A08B002813DDA08B401EA083256295F804
:1029D0003500A077E07FFF2803DAE07F401CE07736
:1029E0003CE03046FDF72CFC6FF00200E7E7019871
:1029F00040B96FF0010028633046FDF721FC6FF00D
:102A00000100DCE795F83500216A91F8351088421D
:102A100005DA05F135020221206A00F004FB627A32
:102A2000294604F11400FFF781FD0198002809DD13
:102A300001AA002105F1440000F090FD05F14400D9
:102A400000F0E8FD3046FDF7FBFB00F0A7F8286B2F
:102A500008B1286BB3E7FDF7EFFB06463046FDF7FC
:102A6000EFFB0020ABE72DE9F04106460F4630466C
:102A700000F044F80546E868FFF712FE044614B972
:102A80000020BDE8F08100212046EA68FFF7DFFE64
:102A900026720020607208223946204600F0E0F9D4
:102AA000FDF7CAFB804604F10C01281DFFF79FFDCE
:102AB0004046FDF7C5FB2046E3E770B5044600201D
:102AC0002072FDF7B9FB054604F10C00FFF7CDFDC0
:102AD0002846FDF7B5FB2046FFF7F2FA70BD70B54A
:102AE000044600202072FDF7A7FB054604F10C0008
:102AF000FFF7BBFD2846FDF7A3FB70BD0246002192
:102B00000AE0074800EB01100078904203D1044826
:102B100000EB01107047491C0529F2DB0020F9E7A2
:102B20006C0000202DE9F04704460D469046002633
:102B30002846FFF7E3FF0746FFF790FA7E6802E0BA
:102B4000A6F10C003668381D8642F9D1FFF796FAD7
:102B500045F08000207208224146204600F080F9AE
:102B6000FDF76AFB814604F10C01381DFFF73FFDBC
:102B70004846FDF765FBBDE8F0870146087A00F09E
:102B8000800008B1012070470020FCE710B5FFF776
:102B9000A3FC00F079FCFFF7AFFC10BD2DE9F0417C
:102BA000FDF74AFB07461848008838BB17480068FD
:102BB000FDF7D8FD461E164850F83600A0F1140463
:102BC00014480068844218D013490E7011480568F3
:102BD00004601248007850B904F11C0105F11C0092
:102BE000FDF731FB3846FDF72BFBBDE8F08104F122
:102BF0001C0105F11C00FDF726FB00BF3846FDF760
:102C00001FFB00BFF1E70000C0000020BC00002057
:102C100084040020C4000020C800002050000020D0
:102C200070B50446FDF708FB054614F8340F20F094
:102C30000F0040F0010020706278343C0A4B03EB37
:102C4000C20004F114014268116042684A604160A8
:102C5000086000BF0549A06B096808430349086084
:102C60002846FDF7EDFA70BD84040020BC0000206A
:102C700070B50446FDF7E0FA054604F11400D0E90A
:102C800000215160D0E9001211604060006000BF77
:102C900094F83510094A02EBC1000168814201D164
:102CA000012100E0002129B10548A16B006888439B
:102CB000034908602846FDF7C3FA70BD840400206C
:102CC000BC0000202DE9F04104460D4616461F4683
:102CD0002A4602212046FFF725FF2046FFF75DFC2C
:102CE000A68367720020BDE8F08170B50446002518
:102CF000FDF7A2FA064604F11400FFF79CFC28B980
:102D000004F11400FFF708FC01250EE0A08B4FF63C
:102D1000FF71884203DAA08B401CA08305E0304697
:102D2000FDF78EFA6FF0020070BD3046FDF788FAAD
:102D3000012D01D1FFF732FF0020F5E773B50546FD
:102D4000FDF77AFA0646A88B002806DDA88B401E00
:102D5000A8833046FDF774FA28E0019828B9304678
:102D6000FDF76EFA6FF001007CBD00F0E5FA044655
:102D7000002020636A7A214605F11400FFF7D6FB94
:102D80000198002809DD01AA002104F1440000F0A7
:102D9000E5FB04F1440000F03DFC3046FDF750FA3D
:102DA000FFF7FCFE206B08B1206BDDE70020DBE7BE
:102DB00008B509A0FFF7FAFB0AA0FFF7F7FB12A07E
:102DC000052301220321009012A0FFF7EFFB19A0B9
:102DD000FFF7ECFB08BD00000A205C207C202F0AD6
:102DE000000000002D205254202D202020202054AF
:102DF0006872656164204F7065726174696E6720E6
:102E000053797374656D0A004A756E203131203232
:102E100030323300202F207C205C202020202025F1
:102E2000642E25642E2564206275696C64202573E8
:102E30000A0000002032303036202D20323032306F
:102E400020436F70797269676874206279207274A8
:102E50002D746872656164207465616D0A000000FC
:102E600070B50346A2B118460C4600BF14F8016BBA
:102E700000F8016B3EB902E0002500F8015B551E29
:102E80002A1EF9D102E0551E2A1EEFD100BF00BF55
:102E9000184670BD2DE9F04105460E46E81C20F0AD
:102EA000030726F00308B8F1180F09D9A8F1180094
:102EB000B84205D3A8EB070018381E49086006E0A1
:102EC000324629461CA0FFF771FBBDE8F081294876
:102ED000076004684FF4F5502080164800680C30F5
:102EE00060600020A0606080224960680968084432
:102EF000214908604FF4F5500968088001201E49F7
:102F0000096848800B4800680C301B490968486014
:102F1000084800680C3018490968886000230122BD
:102F200016A11848FFF7CEFE12480068164908603F
:102F300000BFCAE7600000206D656D20696E69748E
:102F40002C206572726F7220626567696E20616401
:102F5000647265737320307825782C20616E64204C
:102F6000656E6420616464726573732030782578BF
:102F70000A000000540000205800002068656170BD
:102F800000000000640400205C00002010B5002058
:102F90000B490880002405E00A4901EBC400FFF753
:102FA00020FB641C202CF7DB1F2007490870002041
:102FB00006490860064908600648FFF712FB10BD85
:102FC000C000002084040020C8000020C4000020AD
:102FD000BC000020CC00002070B508480068FDF758
:102FE000C1FB451E064850F83500A0F11404054801
:102FF000046004F11C00FDF76CF970BDBC000020FA
:1030000084040020C400002010B5002405E0044919
:1030100001EBC400FFF7E8FA641C002CF7D010BDE8
:10302000D400002070472DE9F04104460E461546B5
:103030003EB3012E2AD0022E35D1FDF7FDF807460A
:1030400094F8340000F00F0001280ED12046FFF75D
:103050000FFE287884F8350094F835100120884058
:10306000A0632046FFF7DCFD07E0287884F83500F0
:1030700094F8351001208840A0633846FDF7E0F849
:1030800012E0204600F080F9BDE8F0812046FFF70D
:1030900074FD012803D1204600F064F8F4E72046CF
:1030A00000F034F8F0E700BF00BF0020ECE72DE9A6
:1030B000FF5F06460F4690461D46DDE90EAB3146E2
:1030C0000120FFF7D0FC8146B9F1000F03D10020A9
:1030D00004B0BDE8F09F2846FFF7E2FA044624B9A1
:1030E0004846FFF7EAFC0020F2E743463A463146FD
:1030F00048468DE8300CFDF79FFB4846E8E710B5E1
:103100000446204600F01EF910BD000070B50446CC
:1031100094F8340000F00F00042801D1002070BDA5
:1031200094F8340000F00F0010B12046FFF7A0FD26
:103130002046FDF7F2FB04F1440000F040FAFDF7F1
:103140007BF80546042084F8340004F11401044897
:10315000FFF754FA2846FDF773F80020DFE7000078
:10316000CC00002070B5044694F8340000F00F0045
:10317000042801D1002070BD94F8340000F00F0045
:1031800010B12046FFF774FD2046FDF7C6FB04F1A1
:10319000440000F014FA042084F834002046FFF7BD
:1031A000ECFC012803D12046FFF799FC0AE0FDF76B
:1031B00043F8054604F114010348FFF71FFA2846B7
:1031C000FDF73EF80020D6E7CC00002070B513488C
:1031D0000468FDF731F805462046FDF79EFB2046C2
:1031E000FFF746FD042084F8340004F1440000F0A9
:1031F000E6F92046FFF7C1FC012803D12046FFF77E
:103200006EFC04E004F114010548FFF7F7F9FFF73D
:10321000C5FC2846FDF714F870BD0000C40000206E
:10322000CC00002001E000F001F8FCE770B528E0D8
:10323000FDF702F8054600BF13480168814201D03E
:10324000012100E0002119B92846FCF7F9FF19E037
:103250000D480068A0F1140404F11400D0E9002125
:103260005160D0E9001211604060006000BFA06AA8
:10327000FEF726FF2046FFF720FC2846FCF7E0FF7C
:1032800000BFD5E700BF70BDCC0000201FB52020D7
:103290001F21C200074BCDE90032CDE90210002307
:1032A000054A06A1074800F00FF8064800F06CF840
:1032B0001FBD000064020020253200007469646CA8
:1032C00065000000EC0100202DE9FF5F05460C467B
:1032D00016461F46DDE910ABDDE90E8922460121C5
:1032E0002846FFF71FFC3B463246214628468DE81C
:1032F000000FFDF7A1FA04B0BDE8F09F70B50446D9
:1033000094F8340000F00F00022802D04FF0FF3094
:1033100070BDFCF791FF054604F11400FFF7AEF90C
:1033200004F1440000F0ECF92846FCF789FF204640
:10333000FFF776FC0020EBE70148006870470000CB
:10334000C400002031B5FCF777FF05460D4804683E
:10335000204600F02FF86A46002104F1440000F0F6
:10336000FDF804F1440000F055F92846FCF768FF29
:10337000FFF714FC206B801C08B90020206300209C
:1033800038BD0000C400002010B504463434A078D5
:1033900060706178012088406060022004F8340980
:1033A0002046FFF7ABFFFFF7C7FF08B1FFF7F6FBBB
:1033B000002010BD70B5044694F8340000F00F00F2
:1033C000012802D04FF0FF3070BDFCF735FF0546F5
:1033D0002046FFF74DFC94F8340020F00F0040F039
:1033E000020084F8340004F1440000F089F9284612
:1033F000FCF726FF0020E7E770B5044625466FF08E
:103400000100286305F11400FFF738F92846FFF79B
:1034100007FCFFF7C3FB70BD70B5FCF70DFF054659
:103420001448046894F8340000F00F0001281CD1FF
:10343000D4E90510814218D004F11400FFF71EF9F9
:1034400094F835200C4B03EBC20004F114014268E0
:10345000116042684A604160086000BF2846FCF77E
:10346000EFFEFFF79BFB002070BD2846FCF7E8FE4F
:103470000020F9E7C400002084040020014800680F
:10348000704700004C00002010B50A480068401C3E
:1034900008490860FFF750FF0446206C401E206476
:1034A000206C18B9E06B2064FFF7B6FF00F004F859
:1034B00010BD00004C0000207CB56846FFF794F872
:1034C000FFF7DCFF0546FCF7B7FE06463AE0224868
:1034D0000068A0F11404A06A281A6FF00041884225
:1034E0002ED22046FDF70BFA607A00F0020018B9E0
:1034F000607A20F00100607204F114016846FFF761
:1035000084F8D4E907108847FFF7B8FF05466846F6
:10351000FFF799F800B115E004F11400FFF7B7F8D0
:10352000607A00F0020060B1607A00F0010040B102
:10353000607A20F001006072204600F06BF800E035
:1035400005E000BF0448FFF77EF80028BFD000BFA9
:103550003046FCF775FE7CBDD40000202DE9F0411B
:1035600004460E461546FCF767FE0746052E1ED29A
:10357000DFE806F00603090E1300606A286017E012
:103580002868606214E0607A20F0020060720FE048
:10359000607A40F0020060720AE0607A00F0010098
:1035A00010B10120286001E00020286000E000BF89
:1035B00000BF3846FCF744FE0020BDE8F08170B53E
:1035C0000446FCF739FE05462046FDF798F9607A77
:1035D00020F0010060722846FCF732FE2046FFF71B
:1035E0007EFA002070BD2DE9F84307460C461546CB
:1035F0001E46DDE9088922460A213846FFF792FA7D
:103600004346324629463846CDF80090FDF756F934
:10361000BDE8F8832DE9F8430546FCF70DFE80462A
:103620002846FDF76CF9687A20F001006872FFF710
:1036300025FF696A0844A8622F4F009700242AE0FA
:1036400019E05DF824201168142202EBC402881AE4
:10365000826AAB6AD21A00D108E0826AAB6AD21AD7
:103660006FF000439A4200D20CE000BF5DF82400E6
:1036700000684DF824005DF8240007EBC401496898
:103680008842DED100BF2CB15DF824000830611CF7
:103690004DF82100641C002CD2D018480068401C52
:1036A000164908600846066805F114010098FEF7FF
:1036B000ACFF022412E006F0030060B9C4F101037C
:1036C00005F1140202EBC301C4F101025DF822000E
:1036D000FEF79BFF00E003E0B608641C012CEAD96A
:1036E00000BF687A40F0010068724046FCF7A8FD10
:1036F0000020BDE8F8830000D4000020DC0000209A
:1037000070B50446607A00F0010010B94FF0FF3048
:1037100070BDFCF791FD05462046FDF7F0F8607A94
:1037200020F0010060722846FCF78AFD0020EFE7D8
:103730002DE9FF4F89B081464C460A9809EB0006F7
:103740004E4504D24FF0FF36A6EB09000A9077E110
:103750000B980078252806D0B44202D20B98007846
:103760002070641C69E1002526E00B98401C0B903A
:103770000B9800782D2802D145F010051CE00B981D
:1037800000782B2802D145F0040515E00B9800784D
:10379000202802D145F008050EE00B980078232878
:1037A00002D145F0200507E00B980078302802D1BF
:1037B00045F0010500E000E0D7E700BF4FF0FF371C
:1037C0000B98007830380A2804D20BA800F0A2F930
:1037D00007460EE00B9800782A280AD10B98401C67
:1037E0000B900C9880C80C90002F02DA7F4245F0B5
:1037F00010054FF0FF3A0B9800782E281CD10B983B
:10380000401C0B900B98007830380A2804D20BA883
:1038100000F080F982460AE00B9800782A2806D149
:103820000B98401C0B900C9850F804AB0C90BAF11C
:10383000000F01DA4FF0000A002004900B98007886
:10384000682803D00B9800786C2805D10B98007875
:1038500004900B98401C0B900A2005900B98007860
:103860006F2873D00CDC632813D004DC25286ED0BD
:1038700058286DD195E064286BD06928F9D197E07C
:10388000702873D0732825D075286ED07828F0D191
:103890008AE005F0100040B904E0B44201D22020D3
:1038A0002070641C781E071EF7DC0C9810F8041BAF
:1038B0000C90C8B20790B44201D207982070641CE3
:1038C00004E0B44201D220202070641C781E071E40
:1038D000F7DCB2E00C98006806900C98001D0C9084
:1038E000069808B960A006904FF0000801E008F1C2
:1038F0000108B84504D0069810F808000028F6D151
:10390000BAF1000F02DDD04500DDD04605F0100011
:1039100048B904E0B44201D220202070641C38462B
:103920007F1E4045F6DC002008900BE0B44202D236
:10393000069800782070641C0698401C0690089831
:10394000401C089008984045F0DB09E026E01FE0A5
:1039500032E02CE00AE0B44201D220202070641C46
:1039600038467F1E4045F6DC67E024E0781C10B93D
:10397000082745F00105CDE9007A02950C9804C8A6
:10398000102331460C902046FEF756FA044654E0C8
:10399000B44201D225202070641C4EE0082005901E
:1039A0001DE045F0400500BF1020059017E000BF66
:1039B00045F0020500BF12E0B44201D2252020707C
:1039C000641C0B98007830B1B44202D20B98007896
:1039D0002070641C02E00B98401E0B902DE000BF8D
:1039E00004986C2807D10C9850F804BB0C9005F093
:1039F0000200B8B116E0049868280BD10C9830F892
:103A0000041B1FFA81FB0C9005F0020050B10FFA65
:103A10008BFB07E00C9850F804BB0C9005F00200FB
:103A200000B100BFCDE9007A02955A4631462046E2
:103A3000059BFEF701FA044600BF0B98401C0B9053
:103A40000B98007800287FF483AE0A9838B1B4420E
:103A500002D20020207002E0002006F8010CA4EB46
:103A600009000DB0BDE8F08F284E554C4C290000E0
:103A700000207047002070470020704700207047EA
:103A800010B5FCF7D9FBFEF793FBFFF791F9FFF7B1
:103A9000BBFAFFF77BFAFEF79BFAFFF7C3FAFFF7D3
:103AA000F5FBFFF799FA002010BD000070B5044641
:103AB00009A0FEF77BFDFEF7FBF8012802D12046A6
:103AC000FEF702F8FCF7C4FF05462246294603A08C
:103AD000FEF76CFD70BD00000A0000002573257321
:103AE0000000000070B5044625680CE0A5F114063E
:103AF000314606A0FEF75AFD2868A04202D004A075
:103B0000FEF754FD2D68A542F0D170BD257300006D
:103B10002F0000000146002009E00B685A1C0A60D3
:103B20001A7800EB800302EB4302A2F130000A682E
:103B30001278303A0A2AF0D3704710B503461A4675
:103B400001E0521C491C107828B1087818B110788F
:103B50000C78A042F5D0D01A10BD000010B54FF07F
:103B60008070406C81691B4888474FF08070406CC2
:103B70008169194888474FF08070006A816E012082
:103B800088474FF08070006A816E40F2014088479C
:103B90004FF08070006A0321426D104890474FF04B
:103BA0008070406960234FF4E13244690C48016839
:103BB0000C48A0474FF08070806C01681520884742
:103BC0004FF0807040695021426C064890470020B9
:103BD00010BD0000000800F0001800F00080054053
:103BE000E000002000C0004010B51EA0FEF7DEFC83
:103BF0002048018820A0FEF7D9FC1E48008800F06C
:103C0000010010B122A0FEF7D1FC1A48008800F094
:103C1000020010B121A0FEF7C9FC1648008800F090
:103C2000040010B120A0FEF7C1FC1248008800F08B
:103C3000080010B11EA0FEF7B9FC0E48008800F481
:103C4000807010B11CA0FEF7B1FC0A48008800F497
:103C5000007010B11BA0FEF7A9FC05A0FEF7A6FCA2
:103C600010BD00007573616765206661756C743AFC
:103C70000A0000002AED00E05343425F43465352DE
:103C80005F554653523A30782530325820000000B4
:103C9000554E444546494E5354522000494E5653C2
:103CA0005441544520000000494E56504320000026
:103CB0004E4F435020000000554E414C49474E4561
:103CC0004420000044495642595A45524F200000B2
:103CD00010B5FFF76DF8002010BD000001000200D4
:103CE00001000300010002000100040001000200C5
:103CF00001000300010002000100050001000200B4
:103D000001000300010002000100040001000200A4
:103D10000100030001000200010006000100020092
:103D20000100030001000200010004000100020084
:103D30000100030001000200010005000100020073
:103D40000100030001000200010004000100020064
:103D50000100030001000200010007000100020051
:103D60000100030001000200010004000100020044
:103D70000100030001000200010005000100020033
:103D80000100030001000200010004000100020024
:103D90000100030001000200010006000100020012
:103DA0000100030001000200010004000100020004
:103DB00001000300010002000100050001000200F3
:103DC00001000300010002000100040001000200E4
:103DD00001000300010002000100303132333435AC
:103DE00036373839616263646566003031323334A6
:103DF0003536373839414243444546000068890921
:103E0000001C4E0E404B4C00808D5B0000127A006F
:103E100080969800001BB7000024F40080A81201CF
:103E2000002D310100366E0140787D014000000018
:103E30000000000000010000A000000002000000DF
:103E40000001000028000000000000000001000048
:103E500020000000000000000001000050000000F1
:103E6000020000000001000014000000000000003B
:103E700000010000A0000000080000000001000098
:103E800010000000000000000001000028000000F9
:103E900002000000000100004000000004000000DB
:103EA0000001000000000000000000000000000011
:103EB0000000000000000000000000000000000002
:103EC00000000000000000000000000000000000F2
:103ED00000000000000000000000000000000000E2
:103EE00000000000000000000000000000000000D2
:103EF00000000000000000000000000000000000C2
:103F00000000000060000000000000000001000050
:103F10005000000000000000000100003C00000014
:103F20000000000000010000300000000000000060
:103F30000001000028000000000000000001000057
:103F40001E00000000000000000100005000000002
:103F50000200000000010000180000000000000046
:103F6000000100001400000000000000000100003B
:103F700060000000040000000001000000000000DC
:103F80000000000000000000000000000000000031
:103F90000000000000000000000000000000000021
:103FA0000000000000000000000000000000000011
:103FB0000000000000000000000000000000000001
:103FC00000000000000000000000000000000000F1
:103FD0000000000000000000000000000024F400C9
:103FE00030003000005A6202910091000087930374
:103FF000D200D20000B4C4041301130100E1F5059E
:1040000054015401000E270795019501252D2A2EF4
:10401000732070726920207374617475732020207E
:1040200020202073702020202020737461636B2077
:1040300073697A65206D61782075736564206C659D
:104040006674207469636B20206572726F720A0057
:1040500068656C6C6F007361792068656C6C6F20AB
:10406000776F726C640076657273696F6E00736847
:104070006F772052542D54687265616420766572A2
:1040800073696F6E20696E666F726D6174696F6EB1
:10409000005F5F636D645F76657273696F6E007356
:1040A000686F772052542D5468726561642076657C
:1040B0007273696F6E20696E666F726D6174696F7D
:1040C0006E006C6973745F746872656164006C691A
:1040D000737420746872656164005F5F636D645F10
:1040E0006C6973745F746872656164006C69737481
:1040F00020746872656164006C6973745F73656DC8
:10410000006C6973742073656D6170686F726520EF
:10411000696E2073797374656D005F5F636D645FB2
:104120006C6973745F73656D006C6973742073657B
:104130006D6170686F726520696E20737973746544
:104140006D006C6973745F6D75746578006C69736C
:1041500074206D7574657820696E20737973746549
:104160006D005F5F636D645F6C6973745F6D757420
:104170006578006C697374206D7574657820696E5C
:104180002073797374656D006C6973745F6D616918
:104190006C626F78006C697374206D61696C206269
:1041A0006F7820696E2073797374656D005F5F634B
:1041B0006D645F6C6973745F6D61696C626F7800C8
:1041C0006C697374206D61696C20626F7820696E10
:1041D0002073797374656D006C6973745F74696DB5
:1041E0006572006C6973742074696D657220696E04
:1041F0002073797374656D005F5F636D645F6C69D4
:1042000073745F74696D6572006C6973742074698E
:104210006D657220696E2073797374656D006C69C9
:104220007374006C69737420616C6C2073796D62B7
:104230006F6C20696E2073797374656D005F5F63C6
:104240006D645F68656C700052542D5468726561CE
:1042500064207368656C6C2068656C702E005F5F0D
:10426000636D645F7073004C697374207468726569
:1042700061647320696E2074686520737973746556
:104280006D2E005F5F636D645F66726565005368E5
:104290006F7720746865206D656D6F727920757316
:1042A00061676520696E2074686520737973746531
:1042B0006D2E006C6973745F6D656D006C6973744D
:1042C000206D656D6F727920757361676520696E09
:1042D000666F726D6174696F6E0000007D3A000058
:1042E000753A00005D3B0000713A0000010B0000D0
:1042F000793A00005040000056400000E50F0000F1
:10430000664000006E400000D13C0000914000007B
:104310009F400000D13C0000C2400000CE400000A1
:10432000C1150000DA400000EC400000C11500009B
:10433000F840000001410000891400001A4100000B
:104340002941000089140000424100004D41000055
:104350007D13000062410000734100007D130000E6
:104360008841000095410000A9110000AD41000006
:10437000C0410000A9110000D8410000E341000045
:10438000A5170000F841000009420000A517000031
:104390001E420000234200008D1000003D4200003C
:1043A00048420000311C00005E42000067420000ED
:1043B000430A0000834200008E420000350A0000DC
:1043C000B3420000BC42000005130000EC430000B3
:1043D00000000020E8000000B0070000D444000006
:1043E000E8000020A0420000C0070000000000001C
:1043F0000000000064000000000000000000000059
:1044000000000000F6FFFFFFF6FFFFFF0024F400AE
:10441000000000000000000000000000000000009C
:10442000000000000000000000000000000000008C
:10443000000000000000000000000000000000007C
:10444000000000000000000000000000000000006C
:1044500000000000000000000100000070000020CB
:1044600070000020780000000200000080000020A2
:1044700080000020200000000300000090000020C9
:10448000900000202400000005000000A000002093
:10449000A0000020300000000A000000B000002052
:1044A000B00000202C000000000000000000000010
:1044B00000000000000000000000000000000000FC
:1044C00000000000000000000000000000000000EC
:0444D00000000000E8
:04000005000001FDF9
:00000001FF
