:020000040000FA
:1000000070020020A5020000AD020000AF02000057
:10001000B1020000B3020000B502000000000000C1
:10002000000000000000000000000000B702000017
:10003000B902000000000000BB020000BD02000089
:10004000BF020000BF020000BF020000BF020000AC
:10005000BF020000BF020000BF020000BF0200009C
:10006000BF020000BF020000BF020000BF0200008C
:10007000BF020000BF020000BF020000BF0200007C
:10008000BF020000BF020000BF020000BF0200006C
:10009000BF020000BF020000BF020000BF0200005C
:1000A000BF020000BF020000BF020000BF0200004C
:1000B000BF020000BF020000BF020000BF0200003C
:1000C000BF020000BF020000BF020000BF0200002C
:1000D000BF020000BF020000BF020000BF0200001C
:1000E000BF020000BF020000BF020000BF0200000C
:1000F000BF020000BF020000BF020000BF020000FC
:10010000BF020000BF020000BF020000BF020000EB
:10011000BF020000BF020000BF020000BF020000DB
:10012000BF020000BF020000BF020000BF020000CB
:10013000BF020000BF020000BF020000BF020000BB
:10014000BF020000BF020000BF020000BF020000AB
:100150000000000000000000BF020000BF0200001D
:10016000BF020000BF02000000000000BF0200004C
:10017000BF020000BF020000BF020000BF0200007B
:10018000BF020000BF020000BF020000BF0200006B
:10019000BF020000BF020000BF020000BF0200005B
:1001A000BF020000BF020000BF020000BF0200004B
:1001B0000000000000000000BF020000BF020000BD
:1001C000BF02000000000000BF020000BF020000EC
:1001D000BF020000BF020000BF020000BF0200001B
:1001E000000000000000000000000000000000000F
:1001F00000000000BF020000BF02000000F002F893
:1002000000F03CF80AA090E8000C82448344AAF174
:100210000107DA4501D100F031F8AFF2090EBAE872
:100220000F0013F0010F18BFFB1A43F0010318472A
:10023000B40E0000D40E0000103A24BF78C878C174
:10024000FAD8520724BF30C830C144BF04680C60DC
:10025000704700000023002400250026103A28BF24
:1002600078C1FBD8520728BF30C148BF0B60704728
:100270001FB500F011FE1FBD10B510BD00F033F822
:100280001146FFF7F5FF00F067FD00F051F803B4E9
:10029000FFF7F2FF03BC00F059F800000138FDD170
:1002A000704700000948804709480047FEE7FEE71D
:1002B000FEE7FEE7FEE7FEE7FEE7FEE7FEE7FEE716
:1002C00004480549034A054B70470000990900009E
:1002D000FD0100007000002070020020700000206E
:1002E000704770477047754600F02CF8AE46050021
:1002F0006946534620F00700854618B020B5FFF741
:10030000DFFFBDE820404FF000064FF000074FF040
:1003100000084FF0000B21F00701AC46ACE8C00923
:10032000ACE8C009ACE8C009ACE8C0098D4670472C
:1003300010B50446AFF300802046BDE81040FFF73B
:10034000A6BF000000487047100000200149182097
:10035000ABBEFEE7260002007047000010B54FF06C
:100360008070406C8169124888474FF08070406C03
:100370008169104888474FF08070006A816E0120C3
:1003800088474FF08070006A816E40F201408847D4
:100390004FF08070006A0321426D0748904707487C
:1003A0004FF4E1310268002000F006FB10BD0000B0
:1003B000000800F0001800F0008005400C0000204C
:1003C000D307D0F8003401D00B4300E08B43C0F8D2
:1003D00000349207D0F8202401D50A4300E08A4374
:1003E000C0F8202470472DE9F04300244FF00108A5
:1003F0004FF00309C2F3411C08FA04F50D420ED078
:10040000D0F8C47F650009FA05F6B743C0F8C47F89
:10041000D0F8C46F0CFA05F52E43C0F8C46F641C05
:10042000E4B2082CE8D3D407D0F8004501D00C433F
:1004300000E08C43C0F800459407D0F8044501D58E
:100440000C4300E08C43C0F804455407D0F808453D
:1004500001D50C4300E08C43C0F808451407D0F8E0
:10046000184501D50C4300E08C43C0F81845D2066E
:10047000D0F83C2501D50A4300E08A43C0F83C256A
:10048000DA07D0F80C2501D00A4300E08A43C0F80F
:100490000C259A07D0F8102501D50A4300E08A43BD
:1004A000C0F810255A07D0F8142501D50A4300E0FA
:1004B0008A43C0F814251A07D0F81C2501D50A4331
:1004C00000E08A43C0F81C259A05D0F8442501D5E0
:1004D0000A4300E08A43C0F84425D0F8402513F4CD
:1004E000407F01D00A4300E08A43C0F84025D0F89D
:1004F000282523B18A43C0F82825BDE8F0830A43A4
:10050000F9E750F82100704730B50C460546022245
:10051000FFF756FF21462846BDE8304008236622F3
:10052000FFF761BF40F821207047000070B5044616
:100530000D464FF08070406C81697E4888474FF0CF
:100540008070406C81697B48401C88474FF0807008
:10055000406C81697748801C88474FF08070406C00
:1005600081697448C01C88474FF08070406C816975
:100570007048001D88474FF08070406C81696D485D
:10058000401D88474FF08070406C81696948801D2C
:1005900088474FF08070406C81696648C01D88476D
:1005A0004FF08070406C81696248083088474FF096
:1005B0008070406C81695F48093088474FF08070D7
:1005C000406C81695B480A3088474FF08070406C0E
:1005D000816958480B3088474FF08070406C8169C2
:1005E00054480C3088474FF08070406C8169514806
:1005F0000D3088474FF08070406C81694D480E3057
:1006000088474FF08070006A816E012088474FF064
:100610008070006A816E40F2014088474FF0807020
:10062000006A0321426D4448904745B3434844491A
:100630000860FF20091D08604FF08070006A816E1D
:10064000404888474FF08070006A0321026F3E489F
:1006500090474FF08070006A4021026E3B489047FF
:100660004FF08070006AC021026F394890474FF008
:100670008070006A1021826B364890470CE04FF082
:100680008070006A4021826B304890470C23012221
:1006900040212E48FFF7A7FE8CB14FF08070006A12
:1006A000816E4FF0051088474FF08070006A816EB0
:1006B0002948884711212948FFF726FF14E04FF009
:1006C0008070006A1121C26B244890474FF08070FF
:1006D000006A0022112103682048984708237722E6
:1006E00011211E48FFF77FFE4FF08070006A032142
:1006F000826B1B4890474FF08070006A00220321F4
:100700000368174898474FF08070006A0321C26B56
:10071000144890470823772203211248FFF763FE0D
:100720004FF08070006A0022032103680D4898474B
:1007300070BD0000000800F0008005404B434F4CA6
:1007400020B50540051803000090054000B00540A5
:1007500000200640006006400510050000D005405E
:1007600000000640004006402DE9F05F0F46C0F350
:10077000C202824EDFF808A20146C0F384184FF48B
:10078000004B022A40D0062A43D0072A46D011F057
:10079000380F47D00024254611F4605F61D0304601
:1007A00000F096FA01465046CAF8C010DAF8601117
:1007B00021F40001CAF8601150F8B01F714A1140CD
:1007C00041F000410160002F7ED0B4FBF7F606B186
:1007D000761E701CB4FBF0F7384600F079FA01463B
:1007E0005046CAF8C01050F8B01F45EA86220A43A6
:1007F00042F000410160504650F8B01F21F47001F2
:1008000001603846BDE8F09F344600254FF00508EA
:10081000C2E747F230544FF40015BDE75C464FF491
:100820008005B9E7B8F10A0F20D2574BDAF87C00FF
:100830004FF04C7553F82840534620F01C00B8F197
:10084000030F01DB40F01000D8674FF4002001E0F7
:10085000401E0BD0D3F850C05FEACC5CF8D528B16D
:100860009AE711F0380F03D0022A01D00020C9E71F
:10087000C1F30269454800F02BFA5646CAF8C00099
:1008800056F8B00F4249084040F0004030603E4901
:100890000839781E51F829100844B0FBF7F2306887
:1008A000284346F8B40B09EBC90000EB4001364879
:1008B000283000EBC10008EB480100EB81035B68C6
:1008C00046F87C39F36F00E055E06FF0FF0707EB67
:1008D00002221343F36750F82100B16F01F40001C5
:1008E0000843B067B06FC0F38921B06FC0F3090C43
:1008F000F06FC0F30427F06F4A0900F01F00401C9E
:10090000B4FBF0F0534201EB431100FB0CF3424304
:1009100003EB5212484302EB90207F1CB0FBF7F030
:100920004708384600F0D4F946F8280CB06FE83E86
:10093000000206D5D6F8B00040F08040C6F8B000FE
:1009400005E0D6F8600140F40000C6F860015846A2
:10095000D6F86811C90702D1401E0028F8DC40B162
:1009600056F8B00F0B492843084340F00040306070
:1009700041E700273FE700262EE700000024F400AF
:1009800000E00F40FF0300EFC80E000040787D013B
:1009900000FC0FE0010000100448006840F4700003
:1009A00002490860024803490860704788ED00E08A
:1009B0000024F400000000202DE9F04104460D461B
:1009C0001646154A52F824004FF08072526C116995
:1009D000884708B9BDE8F081104850F82400104954
:1009E00008600D4A52F824004FF08072526C9169F1
:1009F00088474FF08070406960232A463146476936
:100A000007480068B8474FF080704069C1690448E2
:100A10000068884700BFDDE7B40E0000A80E0000A4
:100A2000040000200FB408B503A8009000990298B4
:100A300000F006F80020009001B05DF814FB000003
:100A40002DE9F34F85B0064612E1002400E0641C56
:100A5000305D252802D0305D0028F8D1214630468F
:100A600000F016F9264430782528EDD1761C0025B3
:100A70004FF0200B00BF16F8011B382932D014DCD0
:100A800033292AD008DC25296FD0302922D03129FA
:100A900021D032296AD11FE034291FD035291ED038
:100AA00036291DD03729F5D11BE0692935D008DC5E
:100AB000392918D0582972D0632922D06429E9D164
:100AC0002AE070296CD073293CD0752958D0782938
:100AD000E0D163E000BF00BF00BF00BF00BF00BFA8
:100AE00000BF00BF00BF16F8010C302801D105B9C6
:100AF000834605EB8500450016F8010C30380544A7
:100B0000B9E70698006804900698001D0690012138
:100B100004A800F0BDF8AAE000BF069800680490A1
:100B20000698001D06904FF000080498002805DA8A
:100B30000498404204904FF0010901E04FF0000991
:100B40000A2739E0069850F804AB0690002400E02C
:100B5000641C1AF804000028FAD12146504600F01F
:100B600097F8A5420BD92D1B05E076E07AE001212C
:100B700043A000F08DF8281EA5F10105F7D176E01D
:100B80000698006804900698001D06904FF0000833
:100B90000A274FF000090FE001E001E000BF00BFAD
:100BA0000698006804900698001D06904FF0000813
:100BB00010274FF0000900BF012401E07C436D1EA7
:100BC00004FB07F00499884205D804FB07F0B0FB4A
:100BD000F7F0A042F2D0B9F1000F00D06D1EB9F1CC
:100BE000000F0AD0BBF1300F07D12D22404608F18B
:100BF00001080DF800204FF00009012D0BD9102D30
:100C000009D26D1E05E0404608F101080DF800B05C
:100C10006D1E002DF7D1B9F1000F05D02D224046F1
:100C200008F101080DF8002010E00498B0FBF4F082
:100C3000B0FBF7F107FB1100124909680A5C404656
:100C400008F101080DF80020B4FBF7F4002CECD1FA
:100C50004146684600F01CF809E0701E012100F0D2
:100C600017F804E0052108A000F012F800BF00BF4B
:100C7000307800287FF4E9AE07B0BDE8F08F0000BF
:100C800020000000A40E00004552524F5200000008
:100C900070B505460E46002413E0285D0A2807D1EA
:100CA0004FF0807040690D21026808480068904745
:100CB000295D4FF0807040690268044800689047E1
:100CC000641CB442E9D3204670BD0000040000203B
:100CD000074A002152F83130834203D302EBC100AE
:100CE00040687047491C0629F4D300207047000073
:100CF000A01000001148006820F010000F490860A3
:100D00000F48006820F010000D490860081D0068B9
:100D100020F01000091D08600948001F006820F03D
:100D200010000749091F086004482030006820F0BF
:100D300010000249203108607047000000C40540DF
:100D400010C5054010B5044649F6404104FB01F0CA
:100D5000FFF7A4FA10BD00003C493D48FFF704FD31
:100D60003C49086000210846FFF7E0FBFFF7C2FF9F
:100D7000FFF7F4FA69E038A0FFF754FE01221146AC
:100D80003848FFF7CFFB002202213648FFF7CAFBA5
:100D9000002201213448FFF7C5FB00221021324810
:100DA000FFF7C0FB4FF4FA70FFF7CCFF00220121E0
:100DB0002C48FFF7B7FB022211462A48FFF7B2FB87
:100DC000002201212848FFF7ADFB00221021264810
:100DD000FFF7A8FB4FF4FA70FFF7B4FF00220121E0
:100DE0002048FFF79FFB002202211E48FFF79AFBD5
:100DF000012211461C48FFF795FB002210211A48DA
:100E0000FFF790FB4FF4FA70FFF79CFF00220121DF
:100E10001448FFF787FB002202211248FFF782FBEC
:100E2000002201211048FFF77DFB102211460E48D9
:100E3000FFF778FB4FF4FA70FFF784FF00F01CF81F
:100E40000446214609A0FFF7EDFD94E7000E2707B1
:100E5000400200F10C000020616761696E20796535
:100E600073740A000040064000D00540737461743A
:100E7000652069732025640010B510210548FFF72F
:100E800040FB044604F0100008B1012010BD002012
:100E9000FCE7000000C005404FF04070E1EE100A92
:100EA00070470000D010000000C0004000D000409B
:100EB00000E00040001800F0011800F0021800F0F7
:100EC00000688909001C4E0E404B4C00808D5B0071
:100ED00000127A0080969800001BB7000024F400EE
:100EE00080A81201002D310100366E0140787D018D
:100EF000400000000000000000010000A000000011
:100F000002000000000100002800000000000000B6
:100F100000010000200000000000000000010000AF
:100F2000500000000200000000010000140000005A
:100F30000000000000010000A00000000800000008
:100F4000000100001000000000000000000100008F
:100F50002800000002000000000100004000000026
:100F6000040000000001000000000000000000007C
:100F70000000000000000000000000000000000071
:100F80000000000000000000000000000000000061
:100F90000000000000000000000000000000000051
:100FA0000000000000000000000000000000000041
:100FB0000000000000000000000000000000000031
:100FC00000000000000000006000000000000000C1
:100FD00000010000500000000000000000010000BF
:100FE0003C00000000000000000100003000000094
:100FF00000000000000100002800000000000000C8
:10100000000100001E0000000000000000010000C0
:101010005000000002000000000100001800000065
:1010200000000000000100001400000000000000AB
:10103000000100006000000004000000000100004A
:1010400000000000000000000000000000000000A0
:101050000000000000000000000000000000000090
:101060000000000000000000000000000000000080
:101070000000000000000000000000000000000070
:101080000000000000000000000000000000000060
:101090000000000000000000000000000000000050
:1010A0000024F40030003000005A620291009100E8
:1010B00000879303D200D20000B4C40413011301CB
:1010C00000E1F50554015401000E27079501950133
:1010D00030313233343536373839616263646566AE
:1010E00000000000041100000000002010000000BB
:1010F00038020000141100001000002060020000FF
:10110000540200000024F400000000000000000071
:0411100000000000DB
:04000005000001FDF9
:00000001FF
