:020000040000FA
:1000000060430020150200001D02000019030000DB
:100010002102000023020000250200000000000071
:1000200000000000000000000000000027020000A7
:10003000290200000000000067020000D106000055
:100040002F0200002F0200002F0200002F020000EC
:100050002F0200002F0200002F0200002F020000DC
:100060002F0200002F0200002F0200002F020000CC
:100070002F0200002F0200002F0200002F020000BC
:100080002F0200002F0200002F0200002F020000AC
:100090002F0200002F0200002F0200002F0200009C
:1000A0002F0200002F0200002F0200002F0200008C
:1000B0002F0200002F0200002F0200002F0200007C
:1000C0002F0200002F0200002F0200002F0200006C
:1000D0002F0200002F0200002F0200002F0200005C
:1000E0002F0200002F0200002F0200002F0200004C
:1000F0002F0200002F0200002F0200002F0200003C
:100100002F0200002F0200002F0200002F0200002B
:100110002F0200002F0200002F0200002F0200001B
:100120002F0200002F0200002F0200002F0200000B
:100130002F0200002F0200002F0200002F020000FB
:100140002F0200002F0200002F0200002F020000EB
:1001500000000000000000002F0200002F0200003D
:100160002F0200002F020000000000002F020000FC
:100170002F0200002F0200002F0200002F020000BB
:100180002F0200002F0200002F0200002F020000AB
:100190002F0200002F0200002F0200002F0200009B
:1001A0002F0200002F0200002F0200002F0200008B
:1001B00000000000000000002F0200002F020000DD
:1001C0002F020000000000002F0200002F0200009C
:1001D0002F0200002F0200002F0200002F0200005B
:1001E000000000000000000000000000000000000F
:1001F000000000002F0200002F020000DFF810D0E6
:1002000000F010F90048004749040000AFF30080F7
:10021000604300200648804706480047FEE7FEE7A7
:10022000FEE7FEE7FEE7FEE7FEE7FEE7FEE7FEE7A6
:1002300021070000FD010000EFF3108072B6704747
:1002400080F310887047424A1368012B04D04FF0A6
:10025000010313603F4A10603F4A11603F484FF06E
:10026000805101607047EFF3108272B63848016820
:1002700051B34FF0000101603648016891B1EFF3CE
:1002800009811EF0100F08BF21ED108B21E9F00F3E
:100290004FF000041EF0100F08BF012441F8044D78
:1002A000006801602C490968096808C9B1E8F00FC5
:1002B000002B18BFB1EC108B81F309884EF0100EA3
:1002C000002B18BF2EF0100E82F310884EF0040E93
:1002D000704721490860EFF3148222F0040282F390
:1002E00014881C494FF00000086019494FF00100C4
:1002F00008601B481B49D0F8002041EA0201016058
:1003000016484FF08051016017480068006880F37C
:10031000088861B662B670471EF0040F0CBFEFF399
:100320000880EFF3098020E9F00F40F804ED40F871
:1003300004ED1EF0040F0CBF80F3088880F30988D9
:1003400000B501F049FF5DF804EB4EF0040E704774
:1003500030000020280000202C00002004ED00E0E8
:1003600020ED00E00000FFFF08ED00E040EA01039F
:100370009B0703D009E008C9121F08C0042AFAD25B
:1003800003E011F8013B00F8013B521EF9D270471F
:10039000D2B201E000F8012B491EFBD270470022C7
:1003A000F6E710B513460A4604461946FFF7F0FF74
:1003B000204610BD421E12F8013F002BFBD111F860
:1003C000013B02F8013B002BF9D1704710B5044600
:1003D00004E00B7800F8013B03B1491C521EF8D22F
:1003E000204610BD421C10F8011B0029FBD1801AC9
:1003F0007047034611F8012B00F8012B002AF9D1B0
:100400001846704730B505460020034600E05B1CE7
:10041000934205D2EC5CC85C201A01D1002CF6D1C5
:1004200030BD0000064C074D06E0E06840F00103D7
:1004300094E8070098471034AC42F6D3FFF7E2FE89
:10044000444300006443000010B503F0FFFA0020AD
:1004500010BD000010B54FF08070406C81690E48EF
:10046000884700BF4FF08070406CD0F88C100A486D
:1004700088470028F6D04FF08070006A0321C26BD5
:10048000064890474FF08070006A002203210368FD
:100490000248984710BD00000C0800F000400640DC
:1004A0002DE9F05F0F46C0F3C202824EDFF808A2CA
:1004B0000146C0F384184FF4004B022A40D0062AAC
:1004C00043D0072A46D011F0380F47D000242546E4
:1004D00011F4605F61D0304600F032F901465046B9
:1004E000CAF8C010DAF8601121F40001CAF86011EE
:1004F00050F8B01F714A114041F000410160002FD7
:100500007ED0B4FBF7F606B1761E701CB4FBF0F794
:10051000384600F015F901465046CAF8C01050F8A8
:10052000B01F45EA86220A4342F00041016050466E
:1005300050F8B01F21F4700101603846BDE8F09F0B
:10054000344600254FF00508C2E747F230544FF417
:100550000015BDE75C464FF48005B9E7B8F10A0F16
:1005600020D2574BDAF87C004FF04C7553F82840F6
:10057000534620F01C00B8F1030F01DB40F01000DF
:10058000D8674FF4002001E0401E0BD0D3F850C0D4
:100590005FEACC5CF8D528B19AE711F0380F03D0A8
:1005A000022A01D00020C9E7C1F30269454800F0E2
:1005B000C7F85646CAF8C00056F8B00F424908407E
:1005C00040F0004030603E490839781E51F829104B
:1005D0000844B0FBF7F23068284346F8B40B09EB47
:1005E000C90000EB40013648283000EBC10008EBA1
:1005F000480100EB81035B6846F87C39F36F00E04B
:1006000055E06FF0FF0707EB02221343F36750F842
:100610002100B16F01F400010843B067B06FC0F36F
:100620008921B06FC0F3090CF06FC0F30427F06F9D
:100630004A0900F01F00401CB4FBF0F0534201EBEC
:10064000431100FB0CF3424303EB5212484302EB0D
:1006500090207F1CB0FBF7F04708384600F070F898
:1006600046F8280CB06FE83E000206D5D6F8B00078
:1006700040F08040C6F8B00005E0D6F8600140F4D4
:100680000000C6F860015846D6F86811C90702D1C3
:10069000401E0028F8DC40B156F8B00F0B49284343
:1006A000084340F00040306041E700273FE7002664
:1006B0002EE700000024F40000E00F40FF0300EFED
:1006C000D03D000040787D0100FC0FE001000010EB
:1006D00010B502F0E5FA10BD10B50E490E48FFF74F
:1006E000DFFE0E490860084600684FF47A71B0FBDF
:1006F000F1F44FF08070806B4169204688474FF0DD
:100700008071896BC86880474FF08071896B486839
:10071000804710BD40787D01400200F1BC00002000
:100720000448006840F47000024908600248034928
:100730000860704788ED00E00024F4000C00002001
:10074000074A002152F83130834203D302EBC10043
:1007500040687047491C0629F4D300207047000008
:10076000A83F0000014609B900207047C8B220B177
:10077000C8B20E4A105C401CF7E701F47F4028B174
:100780000A48C1F30722805C0930EEE701F47F00DC
:1007900028B10648C1F30742805C1130E5E7034801
:1007A00000EB116000781930DFE70000A63C000084
:1007B00002E008C8121F08C1002AFAD1704770472A
:1007C000002001E001C1121F002AFBD170472DE972
:1007D000F04389B0064688469146002400E0641C38
:1007E000305D202804D0305D092801D04445F6D37F
:1007F00024B94FF0FF3009B0BDE8F0832146304600
:1008000001F0A6F9054615B94FF0FF30F3E72021B6
:1008100001A8FFF7C4FD01AA4146304601F008FADD
:10082000074617B94FF0FF30E5E701A93846A8475A
:10083000C9F800000020DEE72DE9FC5F04468B4686
:1008400015461E46DDE90C9ADDE90E7804F1140028
:100850004060006000BF1C346560A660C4F80C9066
:10086000C4F810A02321D4E9030201F0ECFFD4E97D
:10087000033C63441A1F0F4BD4E9010101F0C2FD90
:100880002060A77667760020E061C4F82080C4F875
:100890002480606120766065A0651C3C0090234642
:1008A000054A2146019004F1440002F082FE002036
:1008B000BDE8FC9F99310000C53300002DE9F047E9
:1008C00004460E4617469846DDF8209084F80990B5
:1008D000607A20F001006072E66127620020A06269
:1008E000C4F82480002506E004F1140101EBC500E2
:1008F00001F038FE6D1C012DF6DBBDE8F08770B508
:100900000546002406E005F1140101EBC40001F0E6
:100910007CFE641C012CF6DB70BD70B50446FFF74D
:100920008BFC0546206F10B12046216F8847284672
:10093000FFF786FC70BD000010B520A001F0F4FDAB
:100940002148017821A001F0EFFD1F48007800F058
:10095000010010B123A001F0E7FD1B48007800F072
:10096000020010B122A001F0DFFD1748007800F06E
:10097000040010B121A001F0D7FD1348007800F069
:10098000080010B121A001F0CFFD0F48007800F061
:10099000100010B120A001F0C7FD0B48007800F056
:1009A000800030B108480F3001681DA001F0BCFD87
:1009B00002E01FA001F0B8FD10BD000062757320B9
:1009C0006661756C743A0A0029ED00E05343425F9A
:1009D000434653525F424653523A3078253032589C
:1009E00020000000494255534552522000000000AB
:1009F000505245434953455252200000494D5052F0
:100A0000454349534552522000000000554E53546F
:100A10004B4552522000000053544B455252200087
:100A20005343422D3E424641523A253038580A003F
:100A30000A00000070B504460D4600F001FC0020DD
:100A400070BD70B504460D4600F074FD002070BD09
:100A500010B51548006890F82100C0F3400020B997
:100A6000002012490870084610BD1148006840B1C6
:100A70004FF480720E4801680C48FFF7A7FC0B4842
:100A8000F2E701F0D3F820B10AA10848FFF7B1FC62
:100A900003E00AA10548FFF7ACFC0AA10348FFF7F1
:100AA00089FC0248E0E7000020000020C40000208C
:100AB000240000206D7368200000000066696E73DA
:100AC000682000003E00000010B501F041FB10BDA1
:100AD0000549096891F8211060F34101024A126842
:100AE00082F821107047000020000020024A1060A8
:100AF000024A11607047000010000020140000201E
:100B00007CB5002517491848FFF7F0FF7821012030
:100B100001F034FA154908600846006820B914A0AD
:100B200001F002FD681E7CBD0A2015214FF4806390
:100B30000022CDE90010144914A002F0FEFA044688
:100B400000231A4613A10948006802F045F9012064
:100B5000FFF7BEFF1CB115B9204602F0FBFB0020D9
:100B6000E1E7000044430000844200002000002030
:100B70006E6F206D656D6F727920666F722073687D
:100B8000656C6C0A000000009D0B000074736865C2
:100B90006C6C00007368727800000000E94800681F
:100BA00090F8210020F00100401CE649096881F816
:100BB0002100FFF74DFF054601F0B6FCC1E1FFF74C
:100BC00083FF0446002C00DABBE11B2C05D1012079
:100BD000DC49096881F82000B3E1DA48006890F840
:100BE000200001280DD15B2C05D10220D5490968D0
:100BF00081F82000A5E10020D249096881F8200091
:100C000045E0D048006890F8200002283FD100203D
:100C1000CC49096881F82000412C00D191E1422C97
:100C200000D18EE1442C11D1C6480068B0F87400A0
:100C300058B1C5A001F078FCC2480068B0F8740053
:100C4000401EC0490968A1F874007AE1432C1ED106
:100C5000BC480068B0F87400BA490968B1F872106D
:100C6000884213DAB7480068B0F87420B5480068C5
:100C70002230815CB5A001F057FCB2480068B0F8A2
:100C80007400401CAF490968A1F8740059E10CB127
:100C9000FF2C00D155E1092C1FD1002503E0AAA0AB
:100CA00001F042FC6D1CA7480068B0F87400A8422F
:100CB000F5DCA4480068223002F0DEFEA14800689E
:100CC0002230FFF78FFB80B29E490968A1F87200BD
:100CD0009C490968A1F8740033E17F2C01D0082CED
:100CE0006ED198480068B0F8740000B929E19548C1
:100CF0000068B0F87200401E92490968A1F87200BD
:100D000090480068B0F87400401E8E490968A1F848
:100D100074008C480068B0F872008A490968B1F81C
:100D2000741088423FDD874B1B68B3F87230854EE4
:100D30003668B6F874609A1B824B1B68B3F874303F
:100D40005B1C804E3668223699197E4B1B68B3F8BF
:100D500074607C4B1B682233F01801F053FD0022B5
:100D600078480068B0F87210764800682230425423
:100D700074480068B0F87420724800682230111876
:100D800073A001F0D1FB6F480068B0F8745003E025
:100D90006DA001F0C9FB6D1C6A480068B0F87200D4
:100DA000A842F5DA0BE06CA001F0BEFB002165481B
:100DB0000068B0F872206348006822308154C0E0B7
:100DC0000D2C01D00A2C2BD100F030FF012812D1BC
:100DD0005C48006890F8210000F0010010B15FA0AD
:100DE00001F0A2FB57480068B0F87210554800683F
:100DF000223000F077FEFFF72BFE054601F094FB52
:100E00005021504800682230FFF7C9FA00204D49B0
:100E10000968A1F872004B490968A1F8740090E0D4
:100E200048480068B0F87200502804DB00204549AB
:100E30000968A1F8720043480068B0F8740041499D
:100E40000968B1F87210884245DA3E4B1B68B3F866
:100E500072303C4E3668B6F874609A1B394B1B688A
:100E6000B3F87460374B1B682233F118354B1B689D
:100E7000B3F874305B1C334E36682236981901F093
:100E8000C1FC30480068B0F874202E480068223059
:100E900084542C48006890F8210000F0010050B103
:100EA00028480068B0F874202648006822301118DD
:100EB0002BA001F039FB23480068B0F8745003E020
:100EC00021A001F031FB6D1C1E480068B0F87200D3
:100ED000A842F5DC12E01B480068B0F872201948FF
:100EE0000068223084541748006890F8210000F010
:100EF000010018B1214615A001F016FB002411488D
:100F00000068B0F87200401C0E490968A1F8720030
:100F10000C480068B0F87400401C0A490968A1F840
:100F2000740008480068B0F87200502808DB002000
:100F300004490968A1F8720002490968A1F874001F
:100F400000BF3CE6200000200800000025630000F0
:100F50000825732020080000082008000A0000006F
:100F60002573000010B51448006800F0020010B1AD
:100F700012A001F0D9FA1048006800F0804088B152
:100F80000D48C01E007808B1FFF7D6FC0A48001FC4
:100F9000007808B100F0E2FC0748801E008808B124
:100FA00002F008FE0448006800F0004010B109A0FB
:100FB00001F0BAFA10BD00002CED00E06661696C2A
:100FC000656420766563746F722066657463680A71
:100FD000000000006465627567206576656E740ABE
:100FE0000000000010B502A001F09EFA002010BD24
:100FF00048656C6C6F2052542D5468726561642191
:101000000A0000001CB5002441F23420019045F292
:101010007860009000BF681CC5B205F0010060B1A7
:10102000042201A90D48006801F006FD044684B1C0
:1010300021460BA001F078FA0BE00422694607482C
:10104000006801F0F9FC04461CB121460DA001F036
:101050006BFA4FF47A7002F098F8DCE70800002091
:101060006D7367312073656E64206661696C2C74E2
:101070006865206572726F7220636F64653A20251F
:101080006C780A006D7367322073656E6420666148
:10109000696C2C746865206572726F7220636F646E
:1010A000653A20256C780A0008B5002400BF4FF08F
:1010B000FF33042269460948006801F02CFC04460D
:1010C00024B907A0009901F02FFA03E021460BA0F4
:1010D00001F02AFA642002F058F8E8E7080000203E
:1010E00074686520726563762073756363657373D6
:1010F0003F20307825780A0A0000000074686520D7
:1011000072656376206661696C2C7465682065720F
:10111000726F7220636F64653F203078256C780AA7
:101120000000000010B50DA001F0FEF910480468A1
:101130000DE002220FA12068FFF764F900B905E075
:101140000DA0D4E9001201F0EFF900BF0C340E48F5
:1011500000688442EDD3002010BD00002D2D46759F
:101160006E6374696F6E204C6973743A0A000000F4
:10117000100000205F5F0000252D313673202D2DDB
:101180002025730A00000000140000202DE9F0471C
:1011900004460D4616461F46284601F039FD814695
:1011A00009F10408C4F8008025726660E760002039
:1011B0002061BDE8F0872DE9F84F07460C464FF057
:1011C000000A00202061E06808B1207A10B90020F0
:1011D000BDE8F88FD4F800801FB945464FF0010AEA
:1011E00000E03D46FFF728F80090BAF1000F0ED15D
:1011F000A5F10C0B9BF8080020F08000217A8842B2
:1012000004D00098FFF71CF80020E1E700BF00269B
:10121000D4F804900BE02D68454501D1002507E086
:10122000761C49F8045BE068B04200D100E0F2E7C8
:1012300000BF0098FFF704F826612846C8E70000C1
:1012400010B50848016808A001F06EF90B48016864
:101250000BA001F069F90F4801680FA001F064F9D3
:1012600010BD00004C000020746F74616C206D652F
:101270006D6F72793A2025640A000000500000204A
:1012800075736564206D656D6F7279203A202564F1
:101290000A000000540000206D6178696D756D20B2
:1012A000616C6C6F6361746564206D656D6F7279DC
:1012B0003A2025640A0000002DE9F04F8FB0002786
:1012C0000FF2CC09082302AA06210AA8FFF75EFF45
:1012D0004FF008084A46414630A001F025F9404643
:1012E00000F01EFD34A001F01FF900BF0AA9384626
:1012F000FFF761FF0746002541E002A850F82500EE
:10130000A0F10C06FEF798FF8346307A20F08000AB
:101310009DF83010884203D05846FEF791FF2DE02B
:101320005846FEF78DFF344604F1140001F039F9F8
:10133000A8B904F1140001F04CF98246A08C2346B0
:1013400008224146CDE9000A21A001F0EDF804F1A0
:10135000140002F0ADFB23A001F0E6F80DE004F16B
:10136000140001F036F98246A08C2346082241463B
:10137000CDE9000A1CA001F0D7F800BF6D1C0E9843
:10138000A842BADC002FB1D100200FB0BDE8F08F29
:101390006D7367717565756500000000252D2A2E37
:1013A0007320656E7472792073757370656E642036
:1013B0007468726561640A00202D2D2D2D20202D6A
:1013C0002D2D2D2D2D2D2D2D2D2D2D2D2D0A0000CA
:1013D000252D2A2E2A732025303464202025643AB6
:1013E000000000000A000000252D2A2E2A73202567
:1013F000303464202025640A000000002DE9F04FFD
:101400008FB000270FF2CC09082302AA02210AA8F4
:10141000FFF7BCFE4FF008084A46414630A001F0F5
:1014200083F8404600F07CFC34A001F07DF800BF5A
:101430000AA93846FFF7BFFE0746002541E002A88B
:1014400050F82500A0F10C06FEF7F6FE8346307A30
:1014500020F080009DF83010884203D05846FEF7F7
:10146000EFFE2DE05846FEF7EBFE344604F1140083
:1014700001F097F8A8B904F1140001F0AAF8824627
:10148000A08B234608224146CDE9000A21A001F0A5
:101490004BF804F1140002F00BFB17A001F044F824
:1014A0000DE004F1140001F094F88246A08B23466D
:1014B00008224146CDE9000A1AA001F035F800BF24
:1014C0006D1C0E98A842BADC002FB1D100200FB0DD
:1014D000BDE8F08F73656D6170686F726500000024
:1014E000252D2A2E73207620202073757370656E4B
:1014F00064207468726561640A000000202D2D2D3F
:10150000202D2D2D2D2D2D2D2D2D2D2D2D2D2D0A3B
:1015100000000000252D2A2E2A7320253033642058
:1015200025643A00252D2A2E2A7320253033642085
:1015300025640A002DE9F04FAFB04FF000090FF21B
:101540001C1B082321AA012129A8FFF71FFE4FF029
:10155000080A5A465146434800F0E6FF504600F05C
:10156000DFFB41A000F0E0FF00BF29A94846FFF7DC
:1015700022FE81464FF0000865E021A850F82800BF
:10158000A0F10C05FEF758FE2E90287A20F080007E
:101590009DF8AC10884203D02E98FEF751FE50E023
:1015A0007822294603A8FEF7E1FE2E98FEF748FEB2
:1015B0002C4694F8350023460822514600903AA064
:1015C00000F0B2FF94F8340000F00F06012E03D1B2
:1015D00038A000F0A9FF15E0022E03D138A000F0DA
:1015E000A3FF0FE01EB939A000F09EFF0AE0042E11
:1015F00003D139A000F098FF04E0032E02D139A0F6
:1016000000F092FFA76A00E07F1C38782328FBD007
:10161000D4E90A10791A401A64214843E16AB0FB00
:10162000F1F00290216B206CCDE90001E369A06A22
:10163000C01AE36AC1181A462DA0029B00F074FF7D
:1016400000BF08F101082D98404596DCB9F1000F64
:101650008BD100202FB0BDE8F08F00007468726558
:1016600061640000D83F0000202D2D2D20202D2D5D
:101670002D2D2D2D2D202D2D2D2D2D2D2D2D2D2DA7
:10168000202D2D2D2D2D2D2D2D2D2D20202D2D2DB1
:101690002D2D2D20202D2D2D2D2D2D2D2D2D2D20A1
:1016A0002D2D2D0A00000000252D2A2E2A7320251D
:1016B00033642000207265616479202000000000FE
:1016C0002073757370656E640000000020696E6998
:1016D000742020200000000020636C6F73652020C0
:1016E000000000002072756E6E696E6700000000D9
:1016F0002030782530387820307825303878202010
:1017000020202530326425252020203078253038CF
:101710007820253033640A002DE9F04790B0002787
:101720000FF2B409082303AA0A210BA8FFF72EFD24
:101730004FF008084A46414629A000F0F5FE404611
:1017400000F0EEFA30A000F0EFFE00BF0BA9384623
:10175000FFF731FD074600262DE003A850F82600CC
:10176000A0F10C04FEF768FD8246207A20F080008C
:101770009DF83410884203D05046FEF761FD19E011
:101780005046FEF75DFD2546D5E909012B460822A6
:10179000CDE90001414625A000F0C6FE687A00F0C0
:1017A000010018B127A000F0BFFE02E028A000F061
:1017B000BBFE00BF761C0F98B042CEDC002FC5D117
:1017C00001F042FE0446214625A000F0ADFE0020B7
:1017D00010B0BDE8F087000074696D65720000000C
:1017E000252D2A2E732020706572696F646963202D
:1017F000202074696D656F757420202020202020C2
:10180000666C61670A000000202D2D2D2D2D2D2DD9
:101810002D2D2D202D2D2D2D2D2D2D2D2D2D202D12
:101820002D2D2D2D2D2D2D2D2D2D0A00252D2A2E42
:101830002A73203078253038782030782530387871
:10184000200000006163746976617465640A0000B9
:1018500064656163746976617465640A0000000000
:1018600063757272656E74207469636B3A307825A3
:101870003038780A000000001CB50023142228210B
:101880001DA001F004F81E4908600846006810B168
:101890001CA000F049FE14200421CB010022CDE958
:1018A0000010224922A001F048FC234908600846A4
:1018B000006820B10846006801F04CFD02E04FF0DE
:1018C000FF301CBD142005214FF400730022CDE928
:1018D00000101A491AA001F030FC1B4908600846A4
:1018E000006820B10846006801F034FD02E04FF0C6
:1018F000FF30E6E70020E4E7746573745F6D710004
:10190000080000206D6573736167652071756575EA
:1019100065206372656174657320737563636573B5
:101920007366756C79200A0A00000000051000003B
:101930006C6564310000000000000020A910000068
:101940006C656432000000000400002010B50446FD
:1019500000F034FBFFF790FF10BD000010B51CA095
:1019600000F0E2FD1F4801781FA000F0DDFD1D48DA
:10197000007800F0010010B121A000F0D5FD194859
:10198000007800F0020010B120A000F0CDFD154855
:10199000007800F0080010B11FA000F0C5FD11484C
:1019A000007800F0100010B11EA000F0BDFD0D4841
:1019B000007800F0800030B10A480C3001681CA0AB
:1019C00000F0B2FD02E01EA000F0AEFD10BD000070
:1019D0006D656D206D616E616765206661756C7403
:1019E0003A0A000028ED00E05343425F4346535259
:1019F0005F4D4653523A307825303258200000006F
:101A00004941434356494F4C200000004441434361
:101A100056494F4C200000004D554E53544B4552F3
:101A2000522000004D53544B4552522000000000FC
:101A30005343422D3E4D4D41523A253038580A000D
:101A40000A0000002DE9F04781460026002799F89A
:101A5000000028B90021084600F0A8F8BDE8F0878A
:101A60001B48046827E006221AA12068FEF7CAFC7A
:101A700000B11FE0206800F106084846FEF7B2FCFE
:101A80008246524641464846FEF7BCFC88B926B914
:101A900047463846FEF7A6FC06464146384602F061
:101AA00032F80546B54200DA2E4641460BA000F05A
:101AB0003BFD00BF0C340A4800688442D3D327B1F1
:101AC00032463946484601F055FA00BFC6E70000E5
:101AD000100000205F5F636D645F000025730A00E3
:101AE0001400002038B504460D4601E0641C6D1E4C
:101AF0002DB120782028F9D020780928F6D00DB90A
:101B0000002038BD6A4629462046FEF760FE08B927
:101B10000098F6E7204600E0401C0178202902D01A
:101B200001780029F8D100210170214602A000F0BF
:101B3000FBFC4FF0FF30E4E725733A20636F6D6DD7
:101B4000616E64206E6F7420666F756E642E0A007D
:101B50002DE9F04106460D4600271048046815E0BF
:101B600006220FA12068FEF74DFC00B10DE02168B0
:101B7000881D2A463146FEF745FC28B9A81D216874
:101B8000085C08B9A76805E000BF0C340648006887
:101B90008442E5D300BF3846BDE8F0811000002044
:101BA0005F5F636D645F00001400002070B5054640
:101BB0000E460FA000F0B8FC144804680EE00622A0
:101BC00013A12068FEF71EFC00B106E0D4E9000274
:101BD000811D11A000F0A8FC00BF0C341148006862
:101BE0008442ECD310A000F09FFC002070BD0000E8
:101BF00052542D546872656164207368656C6C2062
:101C0000636F6D6D616E64733A0A0000100000200E
:101C10005F5F636D645F0000252D313673202D20DA
:101C200025730A00140000200A00000001207047FC
:101C30002DE9F04782460E4690465446002500277F
:101C400055E003E000202070641C6D1C20782028E3
:101C500002D02078092801D1B542F3D3082F12D33E
:101C600026A000F061FC4FF0000906E058F82910AA
:101C70002AA000F059FC09F10109B945F6D326A0C4
:101C800000F052FC35E0B54200D332E02078222843
:101C90001CD1641C6D1C48F827407F1C09E020788B
:101CA0005C2804D16078222801D1641C6D1C641C5E
:101CB0006D1C2078222801D0B542F0D3B54200D364
:101CC00017E000202070641C6D1C10E048F82740CD
:101CD0007F1C01E0641C6D1C2078202804D0207833
:101CE000092801D0B542F5D3B54200D301E0B54291
:101CF000A7D300BF3846BDE8F0870000546F6F20BF
:101D00006D616E7920617267732021205765206FA5
:101D10006E6C79205573653A0A0000002573200027
:101D200010B5044602E004A000F0FEFB201EA4F162
:101D30000104F8D110BD00002D00000030B51A4C90
:101D4000436824681919884215D04B889BB9174BF2
:101D50001B6899420FD0164B1B688B4201D1144B64
:101D600018604B684360104B1B68C31A0E4D4C68DB
:101D70002D682C44A3600C4C836824681A19824295
:101D800011D053887BB90A4B1B68834201D1084BA1
:101D90001A6043685360044B1B68D31A024D4468B1
:101DA0002D682C44A36030BD40000020440000207A
:101DB000480000202DE9F04F86B00D469C46DDE935
:101DC000106401960F9B04F04008B8F1000F02D098
:101DD000DFF8708101E0DFF87081CDF8008004F059
:101DE0001008B8F1000F01D024F0010404F001083C
:101DF000B8F1000F02D04FF0300801E04FF020089A
:101E0000C246002704F00208B8F1000F11D0002AE2
:101E100002DA2D2752420CE004F00408B8F1000F5A
:101E200001D02B2705E004F00808B8F1000F00D01E
:101E30002027002142B94FF0300B8846491C0DF194
:101E4000080909F808B01DE01AE0E146B9F10A0FE7
:101E500008D14FF00A0BB2FBFBFE0BFB1E28B2FBB6
:101E6000FBF202E002F00F08120900BFDDF800905B
:101E700019F808B08846491C0DF1080909F808B09E
:101E8000002AE2D1B14200DD0E469B1B04F011088E
:101E9000B8F1000F10D117B1002B00DD5B1E06E07A
:101EA000A84203D24FF0200880F80080401CB3F114
:101EB0000008A3F10103F3DC27B1A84200D20770A8
:101EC0005B1E401C04F01008B8F1000F0AD104E0BA
:101ED000A84201D280F800A0401CB3F10008A3F191
:101EE0000103F5DC06E0A84203D24FF0300880F889
:101EF0000080401CB046761E8845F4DC08E0A8420D
:101F000005D20DF1080818F8018080F80080401C07
:101F1000B1F10008A1F1010104DDDDF80480B8F1A0
:101F2000000FECD106E0A84203D24FF0200880F861
:101F30000080401CB3F10008A3F10103F3DC06B0FC
:101F4000BDE8F08FB73D0000A63D00001CB5142091
:101F50000A214FF480730022CDE90010044905A046
:101F600001F0EBF80446204601F0F4F91CBD000036
:101F70004D1900006D61696E0000000070B50446E7
:101F80000D4604FB05F000F049FB06462EB104FBAC
:101F900005F20021304600F056FC304670BD0000CE
:101FA00010B5044C02E020688047241D024884429A
:101FB000F9D310BD704200007842000010B5044C07
:101FC00002E020688047241D02488442F9D310BDF6
:101FD000784200008042000010B5FEF72DF904465B
:101FE00004480088401C00B2024908802046FEF7E1
:101FF00027F910BD9C00002010B5FEF71DF904461E
:102000000C480088401E00B20A4908800846B0F912
:10201000000000280ADC002008802046FEF710F9A6
:102020000548006828B100F043FE02E02046FEF7B4
:1020300007F910BD9C000020A000002070B50546E7
:1020400005B970BD1D480068854203D31C4800686F
:10205000854200D3F5E7A5F10C044FF0FF31194894
:1020600000F0F6FE608818B12088B0F5F55F08D062
:1020700015A000F059FA23886288214619A000F0C3
:1020800053FA002060804FF4F5502080214800680A
:10209000844201D21F480460084960680968611AD7
:1020A000401A1D490968081A1B4908602046FFF7B5
:1020B00045FE044800F0A3FE00BFC2E74000002038
:1020C0004400002040040020746F20667265652083
:1020D0006120626164206461746120626C6F636B73
:1020E0003A0A00006D656D3A203078253038782C3A
:1020F000207573656420666C61673A2025642C2026
:102100006D6167696320636F64653A2030782530BC
:1021100034780A0048000020500000200048704732
:1021200060050020004870476041002070B5FEF750
:10213000D3FAFEF78FF9FFF733FFFFF7F3FF0446FB
:10214000FFF7ECFF0546214600F02EFF70BD0000B2
:1021500070B54FF0FF344FF0807040690121C26CC0
:102160000C48904705464FF080704069C16A0948A5
:10217000884768B14FF080704069416B05488847D7
:1021800004464FF0807040692946026D014890472F
:10219000E0B270BD00C0004010B50446FFF71CFF60
:1021A00011E020780A2806D14FF0807040690D2197
:1021B00002680848904714F8011B4FF0807040698E
:1021C00002680448904720780028EAD1FFF714FFFE
:1021D00010BD000000C000402DE9F041054605F1AA
:1021E00028062C1D3348006840B130463149096843
:1021F000884707460FB9BDE8F08100BF2EA0216CCB
:1022000000F092F930A0616A00F08EF932A0A16A64
:1022100000F08AF934A0E16A00F086F936A0216B5B
:1022200000F082F938A0616800F07EF93AA0A16858
:1022300000F07AF93CA0E16800F076F93EA021694F
:1022400000F072F940A0616900F06EF942A0A16946
:1022500000F06AF944A0E16900F066F946A0216A3D
:1022600000F062F948A0616B00F05EF94AA0A16B32
:1022700000F05AF94CA0E16B00F056F9287800F014
:10228000040048B101F03EF8074639464AA000F084
:102290004BF9FFF74FF902E04FA000F045F928781D
:1022A00000F0100010B953A000F03EF9FEF75AFEFE
:1022B00000BFFEE7340000207073723A20307825AA
:1022C0003038780A000000007230303A203078252B
:1022D0003038780A000000007230313A203078251A
:1022E0003038780A000000007230323A2030782509
:1022F0003038780A000000007230333A20307825F8
:102300003038780A000000007230343A20307825E6
:102310003038780A000000007230353A20307825D5
:102320003038780A000000007230363A20307825C4
:102330003038780A000000007230373A20307825B3
:102340003038780A000000007230383A20307825A2
:102350003038780A000000007230393A2030782591
:102360003038780A000000007231303A2030782589
:102370003038780A000000007231313A2030782578
:102380003038780A000000007231323A2030782567
:102390003038780A00000000206C723A203078252E
:1023A0003038780A000000002070633A2030782529
:1023B0003038780A00000000686172642066617538
:1023C0006C74206F6E207468726561643A202573A6
:1023D0000D0A0D0A000000006861726420666175D4
:1023E0006C74206F6E2068616E646C65720D0A0DEE
:1023F0000A00000046505520616374697665210D1E
:102400000A000000F0B504460D461646301D20F0C7
:10241000070044380146002203E00D4F41F82270C6
:10242000521C112AF9D34D624FF0000CC1F828C09C
:10243000C1F82CC0C1F830C0C1F834C08B63CC6384
:102440004FF0807CC1F840C000270F60F0BD000055
:10245000EFBEADDE10B5FDF7EFFE04460448007890
:10246000401C034908702046FDF7EAFE10BD00003D
:102470003C00002010B5FDF7DFFE0446044800785C
:10248000401E034908702046FDF7DAFE10BD00002B
:102490003C00002070B504462068A0F114052846D1
:1024A00000F012FF002070BD2DE9F04105460C46FA
:1024B0009046204600F064FFB8F1000F03D0B8F159
:1024C000010F23D105E004F11401284600F062F861
:1024D0001DE02E680FE0A6F1140794F8350097F878
:1024E0003510884206DA04F1140107F1140000F0F7
:1024F00051F802E03668AE42EDD100BFAE4204D1E1
:1025000004F11401284600F045F800E000BF00BFC8
:102510000020BDE8F08110B5044604F1140000F07D
:102520001BF8002010BD00000FB438B505A80090BE
:10253000FF210848009B049A01F0E0F80446FF2CB4
:1025400000D9FF240348FFF727FE0020009038BC85
:102550005DF814FB4003002040600060704740605D
:102560000060704740600060704702685160026818
:102570000A600160486070470268516002680A6042
:102580000160486070470268516002680A6001603B
:10259000486070474268116042684A604160086064
:1025A000704701460868884201D101207047002029
:1025B000FCE701460868884201D1012070470020ED
:1025C000FCE701460868884201D1012070470020DD
:1025D000FCE7014600200A4601E01268401C13682F
:1025E0008B42FAD17047D0E900215160D0E9001246
:1025F0001160406000607047D0E900215160D0E96F
:1026000000121160406000607047D0E90021516005
:10261000D0E9001211604060006070472DE9F04180
:10262000054615B90020BDE8F081E81C20F003053F
:102630004E480068854201D90020F4E70C2D00D2F5
:102640000C254FF0FF314A4800F002FC4948006871
:1026500049490968461A7EE047480068841960883D
:10266000002874D106F10C006168081AA8426ED3E4
:1026700006F10C006168091A05F11800814230D397
:1026800006F10C0000EB05083B48006800EB08076A
:102690004FF4F55038800020788060687860BE6024
:1026A000C4F80480012060803048796800680C30EC
:1026B000814205D03049786809680844C0F808802C
:1026C0002E48016805F10C0008442C4908602C488C
:1026D00000680968884219D22848006828490860BB
:1026E00014E001206080244960680968611A401A7A
:1026F000224909680844214908602148006809689E
:10270000884203D21D4800681D4908604FF4F55007
:10271000208018480068844212D107E015480068FC
:102720004068154909680844124908601148006862
:10273000408828B10F480068124909688842EDD1E5
:102740000B4800F05CFB04F10C006CE7FFE70A4863
:1027500000683044466805480068401BB0423FF6B8
:102760007BAF034800F04BFB00205CE74C000020EF
:1027700040040020480000204000002050000020BD
:1027800054000020440000202DE9F0410F46164679
:1027900004463D463346102B28D305F0030C04F0C5
:1027A00003084CEA080CBCF1000F1FD121462A4651
:1027B00010E052F804CB41F804CB52F804CB41F8B6
:1027C00004CB52F804CB41F804CB52F804CB41F8C7
:1027D00004CB103B102BECD204E052F804CB41F8B0
:1027E00004CB1B1F042BF8D20C46154603E015F84A
:1027F00001CB04F801CBB3F1000CA3F10103F6D136
:10280000BDE8F08170B50C46014623468B4210D2DC
:102810009D188D420DD91144134405E05D1E2B46D1
:102820002E784D1E29462E70151EA2F10102F5D1FB
:1028300008E003E013F8015B01F8015B151EA2F14B
:102840000102F7D170BDF0B50C460546E6B2042A88
:1028500015D300F0030797B9014646EA062343EA79
:10286000034304E008C108C108C108C1103A102A96
:10287000F8D201E008C1121F042AFBD20D4601E084
:1028800005F8016B171EA2F10102F9D1F0BD2DE987
:10289000F0470746884691469A463946062000F09A
:1028A0006CF9044614B92046BDE8F08784F809A005
:1028B0002046FFF730FE08F1030020F003002084DB
:1028C000A4F82290218C091D628C01FB02F0FFF715
:1028D000A5FEE061E06920B9204600F078F900200B
:1028E000E2E70020A062E0622063002508E0208C7F
:1028F000001DE16905FB0016206B306026636D1C2E
:10290000608CA842F3DC0020A08404F13400FFF7BF
:1029100023FE2046C8E72DE9FF4704460F469046B0
:102920004FF0000900F0EEFC0546FDF785FC8246FD
:10293000A08C48B9039838B95046FDF781FC6FF078
:10294000010004B0BDE8F0873CE000202863039854
:1029500030B95046FDF774FC6FF001002863F0E7D2
:10296000627A294604F11400FFF79EFD03980028BF
:102970000CDD00F069FD814603AA002105F1440049
:1029800000F0D2FD05F1440000F02AFE5046FDF7AC
:1029900057FC00F08DF9286B08B1286BD1E7FDF7E3
:1029A0004BFC8246039800280CDD00F04DFDA0EBA7
:1029B00009090398A0EB090003900398002801DAA5
:1029C00000200390A08C0028BFD0A66A3068A062C7
:1029D000E06AB04201D10020E062A08C002802DD54
:1029E000A08C401EA0845046FDF72AFC208C404558
:1029F00001D2208C00E040460246311D3846FFF7E8
:102A0000C3FEFDF719FC8246206B3060266304F19B
:102A10003400FFF7CEFD50B904F13400FFF73AFD62
:102A20005046FDF70DFC00F043F9002089E75046C1
:102A3000FDF706FC002084E770B504460D461646F7
:102A4000002332462946204600F001F870BD2DE9EA
:102A5000FF47044689469046208C404504D24FF0FB
:102A6000FF3004B0BDE8F087002700F04BFC0646BD
:102A7000FDF7E2FB8246256B35B9039820B9504635
:102A8000FDF7DEFBF81EECE739E000203063039829
:102A900028B95046FDF7D4FB6FF00200E1E7627AF7
:102AA000314604F13400FFF7FFFC039800280CDDE9
:102AB00000F0CAFC074603AA002106F1440000F01A
:102AC00033FD06F1440000F08BFD5046FDF7B8FBE6
:102AD00000F0EEF8306B08B1306BC2E7FDF7ACFBED
:102AE0008246039800280ADD00F0AEFCC71B03985D
:102AF000C01B03900398002801DA00200390206B8C
:102B0000051EC2D0286820635046FDF799FB0020BF
:102B1000286042464946281DFFF736FEFDF78CFB2C
:102B20008246E06A08B1E06A0560E562A06A00B921
:102B3000A562A08C4FF6FF71884203DAA08C401C7E
:102B4000A08405E05046FDF77BFB6FF0020088E7AC
:102B500004F11400FFF72DFD50B904F11400FFF744
:102B600099FC5046FDF76CFB00F0A2F8002078E7D6
:102B70005046FDF765FB002073E72DE9F04106465E
:102B80000F46304600F044F80546E868FFF746FD7A
:102B9000044614B90020BDE8F08100212046EA680F
:102BA000FFF751FE26720020607208223946204647
:102BB00000F0E0F9FDF740FB804604F10C01281D10
:102BC000FFF7D3FC4046FDF73BFB2046E3E770B53B
:102BD000044600202072FDF72FFB054604F10C008F
:102BE000FFF701FD2846FDF72BFB2046FFF726FAED
:102BF00070BD70B5044600202072FDF71DFB054630
:102C000004F10C00FFF7EFFC2846FDF719FB70BD3F
:102C1000024600210AE0074800EB011000789042CC
:102C200003D1044800EB01107047491C0429F2DB72
:102C30000020F9E7580000202DE9F04704460D4632
:102C4000904600262846FFF7E3FF0746FFF7C4F942
:102C50007E6802E0A6F10C003668381D8642F9D184
:102C6000FFF7CAF945F0800020720822414620464D
:102C700000F080F9FDF7E0FA814604F10C01381DFF
:102C8000FFF773FC4846FDF7DBFABDE8F087014625
:102C9000087A00F0800008B1012070470020FCE7AE
:102CA00010B5FFF7D7FB00F0D5FBFFF7E3FB10BD36
:102CB0002DE9F041FDF7C0FA07461848008838BBF7
:102CC00017480068FDF74EFD461E164850F83600BE
:102CD000A0F1140414480068844218D013490E70FF
:102CE0001148056804601248007850B904F11C01CD
:102CF00005F11C00FDF7A7FA3846FDF7A1FABDE87B
:102D0000F08104F11C0105F11C00FDF79CFA00BFE5
:102D10003846FDF795FA00BFF1E700009C0000205F
:102D20009800002060040020A0000020A4000020E3
:102D30003C00002070B50446FDF77EFA054614F805
:102D4000340F20F00F0040F0010020706278343C16
:102D50000A4B03EBC20004F114014268116042689F
:102D60004A604160086000BF0549A06B09680843DC
:102D7000034908602846FDF763FA70BD600400202F
:102D80009800002070B50446FDF756FA054604F198
:102D90001400D0E900215160D0E9001211604060B8
:102DA000006000BF94F83510094A02EBC1000168C9
:102DB000814201D1012100E0002129B10548A16B28
:102DC00000688843034908602846FDF739FA70BD5A
:102DD00060040020980000202DE9F04104460D46D3
:102DE00016461F462A4602212046FFF725FF2046A9
:102DF000FFF791FBA68367720020BDE8F08170B5F4
:102E000004460025FDF718FA064604F11400FFF702
:102E1000D0FB28B904F11400FFF73CFB01250EE0BC
:102E2000A08B4FF6FF71884203DAA08B401CA08371
:102E300005E03046FDF704FA6FF0020070BD304641
:102E4000FDF7FEF9012D01D1FFF732FF0020F5E774
:102E500073B50546FDF7F0F90646A88B002806DD98
:102E6000A88B401EA8833046FDF7EAF928E00198B8
:102E700028B93046FDF7E4F96FF001007CBD00F0A1
:102E800041FA0446002020636A7A214605F11400C5
:102E9000FFF70AFB0198002809DD01AA002104F1CF
:102EA000440000F041FB04F1440000F099FB30467F
:102EB000FDF7C6F9FFF7FCFE206B08B1206BDDE7DC
:102EC0000020DBE708B509A0FFF72EFB0AA0FFF7FB
:102ED0002BFB12A0052301220321009012A0FFF773
:102EE00023FB19A0FFF720FB08BD00000A205C208F
:102EF0007C202F0A000000002D205254202D20207D
:102F0000202020546872656164204F70657261747E
:102F1000696E672053797374656D0A004D6179207D
:102F20003230203230323300202F207C205C2020B1
:102F300020202025642E25642E2564206275696C6E
:102F4000642025730A0000002032303036202D2006
:102F50003230323020436F70797269676874206252
:102F6000792072742D746872656164207465616D76
:102F70000A00000070B50346A2B118460C4600BF17
:102F800014F8016B00F8016B3EB902E0002500F86F
:102F9000015B551E2A1EF9D102E0551E2A1EEFD1F3
:102FA00000BF00BF184670BD2DE9F04105460E4632
:102FB000E81C20F0030726F00308B8F1180F09D920
:102FC000A8F11800B84205D3A8EB070018381E492D
:102FD000086006E0324629461CA0FFF7A5FABDE8C6
:102FE000F0812948076004684FF4F55020801648A6
:102FF00000680C3060600020A0606080224960683A
:1030000009680844214908604FF4F55009680880B0
:1030100001201E49096848800B4800680C301B4994
:1030200009684860084800680C30184909688860D9
:103030000023012216A11848FFF7CEFE12480068AF
:103040001649086000BFCAE74C0000206D656D207E
:10305000696E69742C206572726F7220626567698F
:103060006E206164647265737320307825782C203B
:10307000616E6420656E64206164647265737320A0
:10308000307825780A00000040000020440000202D
:1030900068656170000000004004002048000020C6
:1030A00010B500200B490880002405E00A4901EB17
:1030B000C400FFF754FA641C202CF7DB1F200749DB
:1030C0000870002006490860064908600648FFF7B6
:1030D00046FA10BD9C00002060040020A4000020DF
:1030E000A000002098000020A800002070B508482B
:1030F0000068FDF737FB451E064850F83500A0F183
:1031000014040548046004F11C00FDF7E2F870BDEA
:103110009800002060040020A000002010B50024CA
:1031200005E0044901EBC400FFF71CFA641C002C05
:10313000F7D010BDB000002070472DE9FF5F0646B4
:103140000F4690461D46DDE90EAB31460120FFF7E4
:1031500014FD8146B9F1000F03D1002004B0BDE891
:10316000F09F2846FFF75AFA044624B94846FFF76D
:103170002EFD0020F2E743463A46314648468DE8A8
:10318000300CFDF759FB4846E8E710B504462046E9
:1031900000F0BEF810BD000070B513480468FDF7DC
:1031A0004BF805462046FDF7B8FB2046FFF7EAFD41
:1031B000042084F8340004F1440000F0E6F92046CD
:1031C000FFF765FD012803D12046FFF712FD04E05B
:1031D00004F114010548FFF7CFF9FFF769FD284610
:1031E000FDF72EF870BD0000A0000020A800002010
:1031F00001E000F001F8FCE770B528E0FDF71CF8ED
:10320000054600BF13480168814201D0012100E05A
:10321000002119B92846FDF713F819E00D48006898
:10322000A0F1140404F11400D0E900215160D0E9A8
:10323000001211604060006000BFA06AFEF7FEFE51
:103240002046FFF7C4FC2846FCF7FAFF00BFD5E78D
:1032500000BF70BDA80000201FB520201F21C200A4
:10326000074BCDE90032CDE902100023054A06A143
:10327000074800F00FF8064800F06CF81FBD00008A
:1032800040020020F13100007469646C65000000A8
:10329000C80100202DE9FF5F05460C4616461F4673
:1032A000DDE910ABDDE90E89224601212846FFF752
:1032B000C3FC3B463246214628468DE8000FFDF709
:1032C000BBFA04B0BDE8F09F70B5044694F8340032
:1032D00000F00F00022802D04FF0FF3070BDFCF765
:1032E000ABFF054604F11400FFF786F904F1440032
:1032F00000F0ECF92846FCF7A3FF2046FFF71AFD83
:103300000020EBE70148006870470000A0000020A3
:1033100031B5FCF791FF05460D480468204600F0E2
:103320002FF86A46002104F1440000F0FDF804F192
:10333000440000F055F92846FCF782FFFFF7B8FC7F
:10334000206B801C08B900202063002038BD0000DD
:10335000A000002010B504463434A0786070617875
:10336000012088406060022004F834092046FFF7FD
:10337000ABFFFFF7C7FF08B1FFF79AFC002010BDB5
:1033800070B5044694F8340000F00F00012802D014
:103390004FF0FF3070BDFCF74FFF05462046FFF7AA
:1033A000F1FC94F8340020F00F0040F0020084F8A3
:1033B000340004F1440000F089F92846FCF740FF8E
:1033C0000020E7E770B5044625466FF0010028634A
:1033D00005F11400FFF710F92846FFF7ABFCFFF7E3
:1033E00067FC70BD70B5FCF727FF054614480468FC
:1033F00094F8340000F00F0001281CD1D4E9051026
:10340000814218D004F11400FFF7F6F894F8352043
:103410000C4B03EBC20004F11401426811604268D6
:103420004A604160086000BF2846FCF709FFFFF7CB
:103430003FFC002070BD2846FCF702FF0020F9E7A2
:10344000A0000020600400200148006870470000D0
:103450003800002010B50A480068401C0849086080
:10346000FFF750FF0446206C401E2064206C18B902
:10347000E06B2064FFF7B6FF00F004F810BD000019
:10348000380000207CB56846FFF76CF8FFF7DCFFDA
:103490000546FCF7D1FE06463AE022480068A0F156
:1034A0001404A06A281A6FF0004188422ED22046E8
:1034B000FDF725FA607A00F0020018B9607A20F072
:1034C0000100607204F114016846FFF75CF8D4E96A
:1034D00007108847FFF7B8FF05466846FFF771F801
:1034E00000B115E004F11400FFF78FF8607A00F0E6
:1034F000020060B1607A00F0010040B1607A20F013
:1035000001006072204600F06BF800E005E000BFAB
:103510000448FFF756F80028BFD000BF3046FCF73C
:103520008FFE7CBDB00000202DE9F04104460E4620
:103530001546FCF781FE0746052E1ED2DFE806F091
:103540000603090E1300606A286017E028686062AD
:1035500014E0607A20F0020060720FE0607A40F0C0
:10356000020060720AE0607A00F0010010B10120F0
:10357000286001E00020286000E000BF00BF38465E
:10358000FCF75EFE0020BDE8F08170B50446FCF754
:1035900053FE05462046FDF7B2F9607A20F001009F
:1035A00060722846FCF74CFE2046FFF722FB002005
:1035B00070BD2DE9F84307460C4615461E46DDE969
:1035C000088922460A213846FFF736FB4346324631
:1035D00029463846CDF80090FDF770F9BDE8F8832C
:1035E0002DE9F8430546FCF727FE80462846FDF7FF
:1035F00086F9687A20F001006872FFF725FF696A92
:103600000844A8622F4F009700242AE019E05DF8D3
:1036100024201168142202EBC402881A826AAB6A61
:10362000D21A00D108E0826AAB6AD21A6FF0004366
:103630009A4200D20CE000BF5DF8240000684DF80B
:1036400024005DF8240007EBC40149688842DED1FC
:1036500000BF2CB15DF824000830611C4DF821003A
:10366000641C002CD2D018480068401C1649086021
:103670000846066805F114010098FEF784FF02244D
:1036800012E006F0030060B9C4F1010305F1140271
:1036900002EBC301C4F101025DF82200FEF773FFE3
:1036A00000E003E0B608641C012CEAD900BF687A88
:1036B00040F0010068724046FCF7C2FD0020BDE802
:1036C000F8830000B0000020B800002070B5044668
:1036D000607A00F0010010B94FF0FF3070BDFCF7C8
:1036E000ABFD05462046FDF70AF9607A20F001009F
:1036F00060722846FCF7A4FD0020EFE72DE9FF4F9C
:1037000089B081464C460A9809EB00064E4504D222
:103710004FF0FF36A6EB09000A9077E10B9800788E
:10372000252806D0B44202D20B9800782070641C81
:1037300069E1002526E00B98401C0B900B9800785F
:103740002D2802D145F010051CE00B9800782B289D
:1037500002D145F0040515E00B980078202802D12D
:1037600045F008050EE00B980078232802D145F0BB
:10377000200507E00B980078302802D145F00105BC
:1037800000E000E0D7E700BF4FF0FF370B9800786C
:1037900030380A2804D20BA800F0A2F907460EE040
:1037A0000B9800782A280AD10B98401C0B900C9893
:1037B00080C80C90002F02DA7F4245F010054FF0D0
:1037C000FF3A0B9800782E281CD10B98401C0B90C8
:1037D0000B98007830380A2804D20BA800F080F942
:1037E00082460AE00B9800782A2806D10B98401CE4
:1037F0000B900C9850F804AB0C90BAF1000F01DA62
:103800004FF0000A002004900B980078682803D03D
:103810000B9800786C2805D10B98007804900B98D1
:10382000401C0B900A2005900B9800786F2873D0ED
:103830000CDC632813D004DC25286ED058286DD109
:1038400095E064286BD06928F9D197E0702873D08F
:10385000732825D075286ED07828F0D18AE005F03D
:10386000100040B904E0B44201D220202070641C52
:10387000781E071EF7DC0C9810F8041B0C90C8B2D9
:103880000790B44201D207982070641C04E0B4424F
:1038900001D220202070641C781E071EF7DCB2E0E5
:1038A0000C98006806900C98001D0C90069808B9BA
:1038B00060A006904FF0000801E008F10108B8454B
:1038C00004D0069810F808000028F6D1BAF1000FCD
:1038D00002DDD04500DDD04605F0100048B904E017
:1038E000B44201D220202070641C38467F1E40451F
:1038F000F6DC002008900BE0B44202D20698007873
:103900002070641C0698401C06900898401C089083
:1039100008984045F0DB09E026E01FE032E02CE0AB
:103920000AE0B44201D220202070641C38467F1E79
:103930004045F6DC67E024E0781C10B9082745F024
:103940000105CDE9007A02950C9804C81023314690
:103950000C902046FEF72EFA044654E0B44201D201
:1039600025202070641C4EE0082005901DE045F0E5
:10397000400500BF1020059017E000BF45F002058C
:1039800000BF12E0B44201D225202070641C0B98C5
:10399000007830B1B44202D20B9800782070641CD9
:1039A00002E00B98401E0B902DE000BF04986C289D
:1039B00007D10C9850F804BB0C9005F00200B8B188
:1039C00016E0049868280BD10C9830F8041B1FFAF5
:1039D00081FB0C9005F0020050B10FFA8BFB07E061
:1039E0000C9850F804BB0C9005F0020000B100BF29
:1039F000CDE9007A02955A4631462046059BFEF7EE
:103A0000D9F9044600BF0B98401C0B900B98007826
:103A100000287FF483AE0A9838B1B44202D2002065
:103A2000207002E0002006F8010CA4EB09000DB0A4
:103A3000BDE8F08F284E554C4C29000000207047FF
:103A400000207047002070470020704710B5FCF739
:103A5000F3FBFEF76BFBFFF735FAFFF75FFBFFF7B2
:103A60001FFBFEF773FAFFF767FBFFF7F5FBFFF7A6
:103A70003DFB002010BD000070B5044609A0FEF714
:103A800053FDFEF7D3F8012802D12046FDF7DAFFF7
:103A9000FCF7DEFF05462246294603A0FEF744FD5B
:103AA00070BD00000A0000002573257300000000AF
:103AB00070B5044625680CE0A5F11406314606A051
:103AC000FEF732FD2868A04202D004A0FEF72CFDCC
:103AD0002D68A542F0D170BD257300002F000000B5
:103AE0000146002009E00B685A1C0A601A7800EBB6
:103AF000800302EB4302A2F130000A681278303AE8
:103B00000A2AF0D3704710B503461A4601E0521C4A
:103B1000491C107828B1087818B110780C78A042A8
:103B2000F5D0D01A10BD000010B54FF08070406C79
:103B300081691B4888474FF08070406C8169194843
:103B400088474FF08070006A816E012088474FF0EF
:103B50008070006A816E40F2014088474FF08070AB
:103B6000006A0321426D104890474FF08070406911
:103B700060234FF4E13244690C4801680C48A047C7
:103B80004FF08070806C0168152088474FF080707E
:103B900040695021426C06489047002010BD00004B
:103BA000000800F0001800F000800540BC00002074
:103BB00000C0004010B51EA0FEF7B6FC20480188EA
:103BC00020A0FEF7B1FC1E48008800F0010010B1F3
:103BD00022A0FEF7A9FC1A48008800F0020010B1EC
:103BE00021A0FEF7A1FC1648008800F0040010B1E7
:103BF00020A0FEF799FC1248008800F0080010B1E0
:103C00001EA0FEF791FC0E48008800F4807010B1F1
:103C10001CA0FEF789FC0A48008800F4007010B16F
:103C20001BA0FEF781FC05A0FEF77EFC10BD000086
:103C30007573616765206661756C743A0A000000EF
:103C40002AED00E05343425F434653525F554653CB
:103C5000523A30782530325820000000554E444505
:103C600046494E5354522000494E565354415445F0
:103C700020000000494E5650432000004E4F435054
:103C800020000000554E414C49474E45442000005D
:103C900044495642595A45524F20000010B5FFF78B
:103CA00011F9002010BD0000010002000100030016
:103CB00001000200010004000100020001000300F5
:103CC00001000200010005000100020001000300E4
:103CD00001000200010004000100020001000300D5
:103CE00001000200010006000100020001000300C3
:103CF00001000200010004000100020001000300B5
:103D000001000200010005000100020001000300A3
:103D10000100020001000400010002000100030094
:103D20000100020001000700010002000100030081
:103D30000100020001000400010002000100030074
:103D40000100020001000500010002000100030063
:103D50000100020001000400010002000100030054
:103D60000100020001000600010002000100030042
:103D70000100020001000400010002000100030034
:103D80000100020001000500010002000100030023
:103D90000100020001000400010002000100030014
:103DA0000100020001003031323334353637383902
:103DB00061626364656600303132333435363738DA
:103DC000394142434445460000688909001C4E0EB3
:103DD000404B4C00808D5B0000127A00809698006A
:103DE000001BB7000024F40080A81201002D31014F
:103DF00000366E0140787D014000000000000000A8
:103E000000010000A000000002000000000100000E
:103E10002800000000000000000100002000000059
:103E2000000000000001000050000000020000003F
:103E3000000100001400000000000000000100006C
:103E4000A0000000080000000001000010000000B9
:103E50000000000000010000280000000200000037
:103E6000000100004000000004000000000100000C
:103E70000000000000000000000000000000000042
:103E80000000000000000000000000000000000032
:103E90000000000000000000000000000000000022
:103EA0000000000000000000000000000000000012
:103EB0000000000000000000000000000000000002
:103EC00000000000000000000000000000000000F2
:103ED0006000000000000000000100005000000031
:103EE00000000000000100003C0000000000000095
:103EF0000001000030000000000000000001000090
:103F00002800000000000000000100001E0000006A
:103F1000000000000001000050000000020000004E
:103F20000001000018000000000000000001000077
:103F3000140000000000000000010000600000000C
:103F4000040000000001000000000000000000006C
:103F50000000000000000000000000000000000061
:103F60000000000000000000000000000000000051
:103F70000000000000000000000000000000000041
:103F80000000000000000000000000000000000031
:103F90000000000000000000000000000000000021
:103FA00000000000000000000024F4003000300099
:103FB000005A62029100910000879303D200D20060
:103FC00000B4C4041301130100E1F50554015401C8
:103FD000000E270795019501252D2A2E732070725A
:103FE0006920207374617475732020202020207351
:103FF000702020202020737461636B2073697A65C0
:10400000206D61782075736564206C65667420741A
:1040100069636B20206572726F720A0068656C6C50
:104020006F007361792068656C6C6F20776F726CBC
:10403000640076657273696F6E0073686F772052E3
:10404000542D5468726561642076657273696F6E71
:1040500020696E666F726D6174696F6E005F5F6379
:104060006D645F76657273696F6E0073686F772039
:1040700052542D5468726561642076657273696F5D
:104080006E20696E666F726D6174696F6E006C6927
:1040900073745F746872656164006C697374207412
:1040A0006872656164005F5F636D645F6C697374FF
:1040B0005F746872656164006C69737420746872FF
:1040C000656164006C6973745F73656D006C69731E
:1040D000742073656D6170686F726520696E2073FE
:1040E000797374656D005F5F636D645F6C69737491
:1040F0005F73656D006C6973742073656D617068C2
:104100006F726520696E2073797374656D006C69D8
:1041100073745F6D73677175657565006C69737431
:10412000206D6573736167652071756575652069BC
:104130006E2073797374656D005F5F636D645F6C8F
:104140006973745F6D73677175657565006C69730C
:1041500074206D6573736167652071756575652081
:10416000696E2073797374656D006C6973745F7424
:10417000696D6572006C6973742074696D65722075
:10418000696E2073797374656D005F5F636D645F42
:104190006C6973745F74696D6572006C6973742007
:1041A00074696D657220696E2073797374656D0032
:1041B0006C697374006C69737420616C6C20737922
:1041C0006D626F6C20696E2073797374656D005F2A
:1041D0005F636D645F68656C700052542D54687243
:1041E000656164207368656C6C2068656C702E0076
:1041F0005F5F636D645F7073004C697374207468F3
:10420000726561647320696E2074686520737973C8
:1042100074656D2E005F5F636D645F667265650037
:1042200053686F7720746865206D656D6F727920B3
:10423000757361676520696E207468652073797392
:1042400074656D2E006C6973745F6D656D006C69CB
:104250007374206D656D6F72792075736167652069
:10426000696E666F726D6174696F6E00493A000025
:10427000413A0000293B00003D3A0000010B0000DC
:10428000453A00001C40000022400000E50F0000FD
:10429000324000003A4000009D3C00005D400000BC
:1042A0006B4000009D3C00008E4000009A400000E2
:1042B00035150000A6400000B8400000351500008C
:1042C000C4400000CD400000FD130000E6400000A7
:1042D000F5400000FD1300000E4100001C410000ED
:1042E000B9120000394100004D410000B912000030
:1042F0006A41000075410000191700008A41000062
:104300009B41000019170000B0410000B5410000BA
:1043100025110000CF410000DA410000AD1B000074
:10432000F0410000F9410000430A0000154200007E
:1043300020420000350A0000454200004E420000C5
:10434000411200006443000000000020C40000008F
:10435000B007000028440000C40000209C42000078
:10436000C007000000000000000000000000000086
:104370000024F40000000000000000000000000025
:10438000000000000000000000000000000000002D
:10439000000000000000000000000000000000001D
:1043A000000000000000000000000000000000000D
:1043B00000000000000000000000000001000000FC
:1043C0005C0000205C00002078000000020000007B
:1043D0006C0000206C00002020000000060000009F
:1043E0007C0000207C0000203C0000000A0000004F
:1043F0008C0000208C0000202C0000000000000039
:1044000000000000000000000000000000000000AC
:10441000000000000000000000000000000000009C
:08442000000000000000000094
:04000005000001FDF9
:00000001FF
