:020000040000FA
:10000000F0CB00205D0300006503000067030000E3
:10001000690300006B0300006D0300000000000096
:100020000000000000000000000000009D02000031
:100030007103000000000000F9020000150D00002F
:1000400077030000770300007703000077030000C8
:1000500077030000770300007703000077030000B8
:1000600077030000770300007703000077030000A8
:100070007703000077030000770300007703000098
:10008000770300007703000077030000690D00008C
:1000900077030000250E00007703000077030000BF
:1000A0007703000077030000770300007703000068
:1000B0007703000077030000770300007703000058
:1000C0007703000077030000770300007703000048
:1000D0007703000077030000770300007703000038
:1000E0007703000077030000770300007703000028
:1000F0007703000077030000770300007703000018
:100100007703000077030000770300007703000007
:1001100077030000770300007703000077030000F7
:1001200077030000770300007703000077030000E7
:1001300077030000770300007703000077030000D7
:1001400077030000770300007703000077030000C7
:1001500000000000000000007703000077030000AB
:100160007703000077030000000000007703000021
:100170007703000077030000770300007703000097
:100180007703000077030000770300007703000087
:100190007703000077030000770300007703000077
:1001A0007703000077030000770300007703000067
:1001B000000000000000000077030000770300004B
:1001C00077030000000000007703000077030000C1
:1001D0007703000077030000770300007703000037
:1001E000000000000000000000000000000000000F
:1001F00000000000770300007703000000F002F821
:1002000000F03CF80AA090E8000C82448344AAF174
:100210000107DA4501D100F031F8AFF2090EBAE872
:100220000F0013F0010F18BFFB1A43F0010318472A
:10023000282F0000482F0000103A24BF78C878C14A
:10024000FAD8520724BF30C830C144BF04680C60DC
:10025000704700000023002400250026103A28BF24
:1002600078C1FBD8520728BF30C148BF0B60704728
:100270001FB502F04BFE1FBD10B510BD00F057F9C1
:100280001146FFF7F5FF00F0EDFF00F075F903B43C
:10029000FFF7F2FF03BC00F07DF900002C4B19685A
:1002A0000868B0E8F04F80F30988BFF36F8F4FF014
:1002B000000080F3118870470000000008480068C3
:1002C000006880F308884FF0000080F3148862B65D
:1002D00061B6BFF34F8FBFF36F8F00DF00BF00BF6A
:1002E00008ED00E0DFF80C00016841F470010160E6
:1002F000704700BF88ED00E0EFF30980BFF36F8F18
:10030000134B1A681EF0100F08BF20ED108A20E969
:10031000F04F106009B44FF0A00080F31188BFF3D4
:100320004F8FBFF36F8F02F083F84FF0000080F320
:10033000118809BC19680868B0E8F04F1EF0100F6A
:1003400008BFB0EC108A80F30988BFF36F8F704745
:1003500014000020EFF30580704700000948804733
:1003600009480047FEE7FEE7FEE7FEE7FEE7FEE797
:10037000FEE7FEE7FEE7FEE704480549034A054BB2
:1003800070470000490D0000FD010000F0C9002089
:10039000F0CB0020F0C90020032A40F2308010F09A
:1003A000030C00F0158011F8013BBCF1020F624410
:1003B00098BF11F801CB00F8013B38BF11F8013BA1
:1003C000A2F1040298BF00F801CB38BF00F8013B4E
:1003D00011F0030300F07980083AC0F0088051F86A
:1003E000043B083A51F804CBA0E80810F5E7121DC9
:1003F0005CBF51F8043B40F8043BAFF30080D207E8
:1004000024BF11F8013B11F801CB48BF11F8012BB3
:1004100024BF00F8013B00F801CB48BF00F8012BD6
:10042000704702F0FF0343EA032242EA024200F06F
:1004300002B84FF000020429C0F0128010F0030C43
:1004400000F01B80CCF1040CBCF1020F18BF00F8C7
:10045000012BA8BF20F8022BA1EB0C0100F00DB876
:100460005FEAC17C24BF00F8012B00F8012B48BFD4
:1004700000F8012B70474FF0000200B51346944678
:100480009646203922BFA0E80C50A0E80C50B1F1EC
:100490002001BFF4F7AF090728BFA0E80C5048BF00
:1004A0000CC05DF804EB890028BF40F8042B08BF9E
:1004B000704748BF20F8022B11F0804F18BF00F89A
:1004C000012B704770477047704710B5203AC0F055
:1004D0000B80B1E81850203AA0E81850B1E8185045
:1004E000A0E81850BFF4F5AF5FEA027C24BFB1E882
:1004F0001850A0E8185044BF18C918C0BDE81040F3
:100500005FEA827C24BF51F8043B40F8043B08BFFB
:100510007047D20728BF31F8023B48BF11F8012BC2
:1005200028BF20F8023B48BF00F8012B70477546F2
:1005300000F02CF8AE4605006946534620F007004F
:10054000854618B020B5FFF717FFBDE820404FF0F3
:1005500000064FF000074FF000084FF0000B21F0AD
:100560000701AC46ACE8C009ACE8C009ACE8C0097A
:10057000ACE8C0098D46704710B50446AFF3008063
:100580002046BDE81040FFF782BE000000487047DB
:100590008CC9002001491820ABBEFEE726000200EE
:1005A0007047000010B504464FF08070406C8169C0
:1005B000114888474FF08070406C81690F48884728
:1005C0004FF08070006A816E012088474FF0807084
:1005D000006A816E40F2014088474FF08070006AE7
:1005E0000321426D064890470648214602680020D4
:1005F00000F076FC10BD0000000800F0001800F0CC
:10060000008005401000002002F001031BB1D0F86B
:1006100000340B4302E0D0F800348B43C0F80034C0
:1006200002F002031BB1D0F820340B4302E0D0F8F3
:1006300020348B43C0F820347047F0B5002416E016
:100640000125A5400D4085B1D0F8C45F67000326A1
:10065000BE40B543C0F8C45FD0F8C45F6700C2F3C2
:100660004116BE403543C0F8C45F651CECB2082C8F
:10067000E6DB02F001051DB1D0F800550D4302E0A4
:10068000D0F800558D43C0F8005502F002051DB1A9
:10069000D0F804550D4302E0D0F804558D43C0F85E
:1006A000045502F004051DB1D0F808550D4302E0D1
:1006B000D0F808558D43C0F8085502F008051DB163
:1006C000D0F818550D4302E0D0F818558D43C0F806
:1006D000185502F010051DB1D0F83C550D4302E04D
:1006E000D0F83C558D43C0F83C5503F001051DB1D1
:1006F000D0F80C550D4302E0D0F80C558D43C0F8EE
:100700000C5503F002051DB1D0F810550D4302E061
:10071000D0F810558D43C0F8105503F004051DB1F5
:10072000D0F814550D4302E0D0F814558D43C0F8AD
:10073000145503F008051DB1D0F81C550D4302E017
:10074000D0F81C558D43C0F81C5503F400751DB13D
:10075000D0F844550D4302E0D0F844558D43C0F81D
:10076000445503F440751DB1D0F840550D4302E0E7
:10077000D0F840558D43C0F840551BB9D0F82855E6
:100780000D4302E0D0F828558D43C0F82855F0BD40
:1007900030B504460D46022229462046FFF734FFB5
:1007A0000823662229462046FFF747FF30BD000098
:1007B0000446222C01D1012000E0002050B900BFE6
:1007C000A02080F31188BFF34F8FBFF36F8F00BF5E
:1007D00000BFFEE700BF0CA000F0B8FB4FF0807038
:1007E000006A0221C26A0A489047C043C5B24FF06E
:1007F0008070006A2A460221036805489847052050
:1008000001F0DCFCE7E700007461736B310A000063
:1008100000400640044641F21110844201D10120FB
:1008200000E0002050B900BFA02080F31188BFF382
:100830004F8FBFF36F8F00BF00BFFEE700BF0CA05C
:1008400000F084FB4FF08070006A0121C26A0A4800
:100850009047C043C5B24FF08070006A2A4601211C
:10086000036805489847322001F0A8FCE7E700003C
:100870007461736B320A00000040064070B5044694
:100880000D464FF08070406C81697E4888474FF07C
:100890008070406C81697B48401C88474FF08070B5
:1008A000406C81697748801C88474FF08070406CAD
:1008B00081697448C01C88474FF08070406C816922
:1008C0007048001D88474FF08070406C81696D480A
:1008D000401D88474FF08070406C81696948801DD9
:1008E00088474FF08070406C81696648C01D88471A
:1008F0004FF08070406C81696248083088474FF043
:100900008070406C81695F48093088474FF0807083
:10091000406C81695B480A3088474FF08070406CBA
:10092000816958480B3088474FF08070406C81696E
:1009300054480C3088474FF08070406C81695148B2
:100940000D3088474FF08070406C81694D480E3003
:1009500088474FF08070006A816E012088474FF011
:100960008070006A816E40F2014088474FF08070CD
:10097000006A0321426D4448904745B343484449C7
:100980000860FF20091D08604FF08070006A816ECA
:10099000404888474FF08070006A0321026F3E484C
:1009A00090474FF08070006A4021026E3B489047AC
:1009B0004FF08070006AC021026F394890474FF0B5
:1009C0008070006A1021826B364890470CE04FF02F
:1009D0008070006A4021826B304890470C230122CE
:1009E00040212E48FFF729FE8CB14FF08070006A3D
:1009F000816E4FF0051088474FF08070006A816E5D
:100A00002948884711212948FFF7C2FE14E04FF01A
:100A10008070006A1121C26B244890474FF08070AB
:100A2000006A002211210368204898470823772292
:100A300011211E48FFF701FE4FF08070006A03216C
:100A4000826B1B4890474FF08070006A00220321A0
:100A50000368174898474FF08070006A0321C26B03
:100A6000144890470823772203211248FFF7E5FD39
:100A70004FF08070006A0022032103680D489847F8
:100A800070BD0000000800F0008005404B434F4C53
:100A900020B50540051803000090054000B0054052
:100AA00000200640006006400510050000D005400B
:100AB00000000640004006402DE9F05F0F46C0F3FD
:100AC000C202824EDFF808A20146C0F384184FF438
:100AD000004B022A40D0062A43D0072A46D011F004
:100AE000380F47D00024254611F4605F61D03046AE
:100AF00000F082FB01465046CAF8C010DAF86011D7
:100B000021F40001CAF8601150F8B01F714A114079
:100B100041F000410160002F7ED0B4FBF7F606B132
:100B2000761E701CB4FBF0F7384600F065FB0146FA
:100B30005046CAF8C01050F8B01F45EA86220A4352
:100B400042F000410160504650F8B01F21F470019E
:100B500001603846BDE8F09F344600254FF0050897
:100B6000C2E747F230544FF40015BDE75C464FF43E
:100B70008005B9E7B8F10A0F20D2574BDAF87C00AC
:100B80004FF04C7553F82840534620F01C00B8F144
:100B9000030F01DB40F01000D8674FF4002001E0A4
:100BA000401E0BD0D3F850C05FEACC5CF8D528B11A
:100BB0009AE711F0380F03D0022A01D00020C9E7CC
:100BC000C1F30269454800F017FB5646CAF8C00059
:100BD00056F8B00F4249084040F0004030603E49AE
:100BE0000839781E51F829100844B0FBF7F2306834
:100BF000284346F8B40B09EBC90000EB4001364826
:100C0000283000EBC10008EB480100EB81035B6872
:100C100046F87C39F36F00E055E06FF0FF0707EB13
:100C200002221343F36750F82100B16F01F4000171
:100C30000843B067B06FC0F38921B06FC0F3090CEF
:100C4000F06FC0F30427F06F4A0900F01F00401C4A
:100C5000B4FBF0F0534201EB431100FB0CF34243B1
:100C600003EB5212484302EB90207F1CB0FBF7F0DD
:100C70004708384600F0C0FA46F8280CB06FE83E46
:100C8000000206D5D6F8B00040F08040C6F8B000AB
:100C900005E0D6F8600140F40000C6F8600158464F
:100CA000D6F86811C90702D1401E0028F8DC40B10F
:100CB00056F8B00F0B492843084340F0004030601D
:100CC00041E700273FE700262EE700000024F4005C
:100CD00000E00F40FF0300EF3C2F000040787D0153
:100CE00000FC0FE001000010C0F307220849C0B269
:100CF000114401F07042C1F3130142EA411141EA8B
:100D0000800040F000700068002800D0012070478B
:100D100000EA0F4010B500BFA02080F31188BFF398
:100D20004F8FBFF36F8F00BF01F094FE18B14FF0EB
:100D300080500449086000BF002080F3118800BF84
:100D400010BD000004ED00E00448006840F47000AD
:100D500002490860024803490860704788ED00E0D6
:100D60000024F4000400002070B54FF08070C06BC8
:100D70000121426D0D48904705464FF08070C06BD1
:100D800029460268094890474FF08070006A0221A6
:100D9000C26A07489047C043C4B24FF08070006AEF
:100DA0002246022103680248984770BD00000340B4
:100DB0000040064010B54FF08070406C81691648C5
:100DC000884700BF1448FFF78FFF0028FAD04FF084
:100DD0008070C06B2221C268104890474FF080702D
:100DE000C06B836B0E48FF2102680C4898474FF098
:100DF0008070C06B0121C26C084890474FF0807032
:100E0000806C0168232088474FF08070C06BFF2101
:100E100042680248904710BD000400F00000034003
:100E20001000002070B54FF08070C06B0121426D42
:100E30000D48904705464FF08070C06B2946026808
:100E4000094890474FF08070006A0121C26A074844
:100E50009047C043C4B24FF08070006A224601211F
:100E600003680248984770BD0010034000400640E8
:100E700010B54FF08070406C81691648884700BFFC
:100E80001448FFF731FF0028FAD04FF08070C06B94
:100E90002221C268104890474FF08070C06B836B6E
:100EA0000E48FF2102680C4898474FF08070C06BD5
:100EB0000121C26C084890474FF08070806C016837
:100EC000252088474FF08070C06BFF2142680248A0
:100ED000904710BD010400F00010034010000020F6
:100EE0002DE9F04104460D461646154A52F82400F5
:100EF0004FF08072526C1169884708B9BDE8F081E3
:100F0000104850F82400104908600D4A52F8240097
:100F10004FF08072526C916988474FF08070406941
:100F200060232A463146476907480068B8474FF0B2
:100F300080704069C16904480068884700BFDDE7E8
:100F4000282F00001C2F0000080000200FB408B557
:100F500003A800900099029800F006F80020009085
:100F600001B05DF814FB00002DE9F34F85B0064693
:100F700012E1002400E0641C305D252802D0305DC1
:100F80000028F8D12146304600F016F92644307882
:100F90002528EDD1761C00254FF0200B00BF16F858
:100FA000011B382932D014DC33292AD008DC25294A
:100FB0006FD0302922D0312921D032296AD11FE0C7
:100FC00034291FD035291ED036291DD03729F5D117
:100FD0001BE0692935D008DC392918D0582972D08E
:100FE000632922D06429E9D12AE070296CD07329C1
:100FF0003CD0752958D07829E0D163E000BF00BF0C
:1010000000BF00BF00BF00BF00BF00BF00BF16F899
:10101000010C302801D105B9834605EB8500450058
:1010200016F8010C30380544B9E7069800680490BA
:101030000698001D0690012104A800F0BDF8AAE062
:1010400000BF0698006804900698001D06904FF0B7
:1010500000080498002805DA0498404204904FF0F4
:10106000010901E04FF000090A2739E0069850F81D
:1010700004AB0690002400E0641C1AF80400002869
:10108000FAD12146504600F097F8A5420BD92D1B06
:1010900005E076E07AE0012143A000F08DF8281EFB
:1010A000A5F10105F7D176E006980068049006984E
:1010B000001D06904FF000080A274FF000090FE0CE
:1010C00001E001E000BF00BF0698006804900698A8
:1010D000001D06904FF0000810274FF0000900BFD8
:1010E000012401E07C436D1E04FB07F00499884253
:1010F00005D804FB07F0B0FBF7F0A042F2D0B9F13D
:10110000000F00D06D1EB9F1000F0AD0BBF1300FF7
:1011100007D12D22404608F101080DF800204FF0BC
:101120000009012D0BD9102D09D26D1E05E0404696
:1011300008F101080DF800B06D1E002DF7D1B9F1CE
:10114000000F05D02D22404608F101080DF80020BF
:1011500010E00498B0FBF4F0B0FBF7F107FB1100CE
:10116000124909680A5C404608F101080DF80020A0
:10117000B4FBF7F4002CECD14146684600F01CF8B3
:1011800009E0701E012100F017F804E0052108A015
:1011900000F012F800BF00BF307800287FF4E9AEFD
:1011A00007B0BDE8F08F000020000000182F0000FD
:1011B0004552524F5200000070B505460E460024BD
:1011C00013E0285D0A2807D14FF0807040690D2197
:1011D0000268084800689047295D4FF080704069B8
:1011E0000268044800689047641CB442E9D3204672
:1011F00070BD000008000020074A002152F831307D
:10120000834203D302EBC10040687047491C0629A2
:10121000F4D30020704700001431000001210120A8
:101220000B4A12680AB1002011E00A4A12680AB19A
:1012300000200CE0084A12680AB1002007E0074AC3
:101240001368074A1268521E934200D10220704769
:101250002801002038000020340000205001002028
:10126000240000201CB51A491A48FFF725FC1A492A
:10127000086000210846FFF701FBFFF79BFDFFF721
:10128000F7FD4FF4E130FFF78DF900220421012032
:1012900001F0F8F91149086008460068B0B1002073
:1012A000022122236422CDE900100DA10E4801F095
:1012B00087FB0020012141F211136422CDE90010C7
:1012C0000AA10C4801F07CFB01F006F800BFFEE724
:1012D000000E2707400200F110000020000000204F
:1012E0006C65643100000000B10700006C65643279
:1012F00000000000150800002DE9F04105460E46EB
:101300002648076826480068001D00F087FD50B990
:101310002348006890F82C10012088402149096872
:10132000814320480160681CD8B9D6B11E4948687D
:101330001B49096888601A4982680968CA601849A7
:101340000968091D8268516015490968091D816095
:10135000154A134909684A6111460968491C116018
:101360001AE07C190E4800684460BC4207D20C4861
:101370000168091D0D48006800F08CFD0CE008486C
:101380000168091D0A48006800F084FD09480068EA
:10139000844201D207480460BDE8F08128000020A3
:1013A000140000202C000020500100201C00002010
:1013B000180000204400002010B5044600F084FD11
:1013C00031480068401C304908603048006840B926
:1013D0002E4804600846006801280DD100F0F8F995
:1013E0000AE02B48006838B928480068C06AE16AFA
:1013F000884201D82548046026480068401C2549D9
:10140000086008460068206494F82C100120884089
:1014100021490968084320490860E16A01EB81011C
:101420001E4A02EB81014868A0608268E260211DCB
:10143000826851608160E16A01EB8101174A02EB29
:1014400081026261E16A01EB8101144A52F82110C4
:10145000491CE26A02EB8202104B43F8221000F0B2
:101460005DFD0B48006868B108480068C06AE16A21
:10147000884207D24FF0805009490860BFF34F8F70
:10148000BFF36F8F10BD0000240000201400002067
:1014900030000020400000202C0000209C00002094
:1014A00004ED00E010B500F00FFD0C48006890B9A5
:1014B0000B4800F0DFFC0B4800F0DCFC08480A4950
:1014C000086008480949086000221021052001F041
:1014D000D9F80249086000F021FD10BD5C00002031
:1014E00064010020780100205400002058000020F2
:1014F00010B516E000F0E8FC0C48C068C468201D78
:1015000000F08CFC0A480068401E09490860094840
:101510000068401E0749086000F000FD204600F00A
:1015200020F8044800680028E4D110BD3C010020E8
:10153000240000202000002070B504460D46206CD9
:1015400070B1216CE0680144E160D4E90210884286
:1015500001D32168E1602846226CE168FEF71CFF98
:1015600070BD10B50446206B00F0F6FC204600F07C
:10157000F3FC10BD002101220C4B1B68012B00D98C
:1015800001210B4A1268D26A0AB100200DE0094A13
:101590001268012A01D9002007E009B1002004E007
:1015A000054A1268054B1B68D01A70472C000020B2
:1015B000140000209C00002044000020280000208F
:1015C0000146084A126812680AB9012200E00022A6
:1015D0000A600A6822B9034A1268D268106800E0FB
:1015E000002070475400002030B54FF448431548A0
:1015F00000F007042CB1C01D20F00700114C041BA3
:101600001B1B0246104C226000240F4D6C60D0184A
:10161000083820F007000D4C206000240B4D2D6889
:101620006C600A4D2D682C601146441A4C60074CC2
:1016300024680C60064D4C682C60064D4C682C608C
:1016400030BD00008C0100206800002070000020E8
:10165000780000207400002000BFFFF749FF1A48FF
:101660000068012807D94FF0805018490860BFF37F
:101670004F8FBFF36F8F00F0E5FBFFF77BFF044652
:10168000022C20D300F0CCFE1148006811490968F3
:10169000884201D3012000E0002050B900BFA02003
:1016A00080F31188BFF34F8FBFF36F8F00BF00BF70
:1016B000FEE7FFF75FFF0446022C02D3204600F04E
:1016C000B3FC01F03DFBC8E79C00002004ED00E006
:1016D00044000020280000202DE9F04106460D4678
:1016E00017469846069C0DB9246000E02760E66323
:1016F00025640121204600F0F9FF84F84C80BDE804
:10170000F0812DE9F05F82460F4690469B460A9E87
:101710000C9C4FEA8801A522206BFEF782FEA8F1FF
:101720000100216B01EB800929F0070909F007008E
:1017300008B9012000E0002050B900BFA02080F3CC
:101740001188BFF34F8FBFF36F8F00BF00BFFEE75D
:101750007FB1002507E0795D04F134004155785DE3
:1017600000B902E06D1C0C2DF5D300BF00213F2015
:101770000155052E01D2012000E0002050B900BF24
:10178000A02080F31188BFF34F8FBFF36F8F00BF8E
:1017900000BFFEE7052E00D30426E662A664201DE6
:1017A00000F075FB04F1180000F071FB2461C6F134
:1017B0000500A06164625A465146484600F018FB95
:1017C00020600B9808B10B980460BDE8F09F000002
:1017D00010B5002407E004EB84010F4A02EB8100FE
:1017E00000F048FB641C052CF5D30C4800F042FBCC
:1017F0000B4800F03FFB0B4800F03CFB0A4800F0B0
:1018000039FB0A4800F036FB0448094908600448DF
:101810000849086010BD00009C0000200001002065
:1018200014010020280100203C010020500100206C
:10183000180000201C00002010B50146164800E0EA
:10184000006803688B42FBD30246436813448B4213
:1018500004D143684C682344436001460A464B6800
:1018600013440468A34211D10C4C03682468A342BA
:1018700008D04B680468646823444B6003681B68A5
:101880000B6005E0054B1B680B6001E003680B6013
:10189000884200D0016010BD680000207000002068
:1018A0002DE9F04104460D4616461F464FF000084C
:1018B00065602461B5420CD8F01BA169884202D34F
:1018C0004FF0010811E0211D0948006800F0E2FA1C
:1018D0000BE0BE4204D2BD4202D34FF0010804E047
:1018E000211D0448006800F0D5FA4046BDE8F081AB
:1018F000580000205400002070B5054600F0E4FABE
:10190000A86B08B9012400E0002400F007FB204682
:1019100070BD000070B505460E460E480068C068F0
:10192000C468201D00F07AFA94F8280000F0040042
:1019300028B132462946204600F0EEF805E094F83A
:10194000280000F0FE0084F828002046216A88471D
:1019500070BD00005400002070B586B094E002987D
:10196000002811DA03AE56B900BFA02080F3118819
:10197000BFF34F8FBFF36F8F00BF00BFFEE7D6E905
:101980000020B168904700BF029800287CDB049CCF
:10199000606908B9012000E0002010B9201D00F0A6
:1019A0003DFA01A800F0E4F8054602980A2869D239
:1019B000DFE800F06805072E365806082F3700BF0D
:1019C00000BF00BF94F8280040F0010084F8280010
:1019D0000398A269811803462A462046FFF760FF54
:1019E000A8B194F8280000F0040038B10398A26967
:1019F00081182A46204600F08FF805E094F8280068
:101A000000F0FE0084F828002046216A88473AE06A
:101A100000BF94F8280000F0FE0084F8280032E0AF
:101A200000BF94F8280040F0010084F828000398D3
:101A3000A061A06908B1012000E0002050B900BFFA
:101A4000A02080F31188BFF34F8FBFF36F8F00BFCB
:101A500000BFFEE7A06941192B462A462046FFF742
:101A60001FFF10E094F8280000F0020018B920468B
:101A700000F072FA05E094F8280000F0FE0084F807
:101A8000280000E000BF00BF002202A9044800684F
:101A900000F09AFE00287FF462AF06B070BD00002F
:101AA0005C000020F8B505460C4600F0B9FC68461D
:101AB00000F05EF80646009820BB44B9B54206D84F
:101AC00001F03EF931462846FFF724FF1CE03CB107
:101AD0000E480068006808B9012000E000200446B4
:101AE000A91B22460A48006800F043FB01F028F9D0
:101AF00050B94FF0805007490860BFF34F8FBFF3D4
:101B00006F8F01E001F01CF9F8BD000058000020C3
:101B10005C00002004ED00E070B504460D4616465A
:101B200004E0A06905442046216A8847A06941195C
:101B30002B4632462046FFF7B3FE0028F1D170BD98
:101B400009480068006808B9012000E0002020B1C1
:101B50004FF0FF300549086005E003480068C068A1
:101B60000068024908607047180000204400002007
:101B700070B5044600F068FF0546074800688542D6
:101B800004D200F00BF80120206001E0002020606A
:101B900001480560284670BD6400002070B508E06B
:101BA0000D480068C06804684FF0FF312046FFF719
:101BB000B1FE09480068006808B9012000E0002073
:101BC0000028EDD004480568044800680249086010
:101BD0000248056070BD000054000020580000203D
:101BE0000E480068401C08B9012000E0002050B9F0
:101BF00000BFA02080F31188BFF34F8FBFF36F8F1A
:101C000000BF00BFFEE700BFA02080F31188BFF334
:101C10004F8FBFF36F8F00BF00BFFEE7840000202F
:101C200008B500BF6846FFF7CBFC04462046009984
:101C3000FFF738FFFFF790FEF4E770B5044600F0B9
:101C400043F994F9455010E0606A08B9012000E0BA
:101C5000002038B904F1240000F0E0FF18B100F0D2
:101C6000E7FA00E003E0681E45B2002DECDC00BF9F
:101C7000FF2084F8450000F051F900F025F994F9AF
:101C8000445010E0206908B9012000E0002048B964
:101C900004F1100000F0C2FF08B100F0C9FA681E9C
:101CA00045B200E001E0002DECDC00BFFF2084F82D
:101CB000440000F033F970BD2DE9F04705464FF0C0
:101CC000000800F0ADFB4548006808B9FFF78CFC40
:101CD00075B105F00700C0F11009C9F1FF30A84245
:101CE00001D2012000E0002008B94D4400E00025A9
:101CF000012000EBE570002853D0002D51D038486A
:101D0000006885424DD8374E3046046801E02646CB
:101D100024686068A84202D220680028F7D12F48C2
:101D2000006884423DD0306800F1080820683060C7
:101D30006068401B102819D9671907F0070008B917
:101D4000012000E0002050B900BFA02080F31188DE
:101D5000BFF34F8FBFF36F8F00BF00BFFEE7606818
:101D6000401B786065603846FFF766FD1C49606877
:101D70000968081A1A490860084600681A4909687B
:101D8000884203D21648006817490860606840F02E
:101D9000004060600020206014480068401C134927
:101DA000086000F0CDFFB8F1000F01D100F04BF852
:101DB00008F0070008B9012000E0002050B900BF7A
:101DC000A02080F31188BFF34F8FBFF36F8F00BF48
:101DD00000BFFEE74046BDE8F0870000700000202D
:101DE0007400002068000020780000207C000020A3
:101DF000001F4FF080730360001F21F00103036098
:101E0000001F054B036014380260001F6FF00203CF
:101E10000360203870470000E11B000001460A699A
:101E2000D1E901309860D1E90103586050688842D7
:101E300001D188685060002008611068401E106061
:101E400010687047704700BFA02080F31188BFF36F
:101E50004F8FBFF36F8F00BF00BFFEE700BFA02012
:101E600080F31188BFF34F8FBFF36F8F00BF00BFA8
:101E7000FEE7704700F1080141604FF0FF318160DB
:101E800000F10801C160016100210160704700217B
:101E90000161704710B502460B685C1C0CB91069F3
:101EA00007E002F1080000E04068446824689C42B2
:101EB000FAD944684C604C68A160886041600A614E
:101EC0001468641C146010BD00BFA02080F311884A
:101ED000BFF34F8FBFF36F8F00BF0E480068401CE9
:101EE0000C49086008460068012812D10A480068B9
:101EF000C0B208B9012000E0002050B900BFA02006
:101F000080F31188BFF34F8FBFF36F8F00BF00BF07
:101F1000FEE770478400002004ED00E00D480068F3
:101F200050B900BFA02080F31188BFF34F8FBFF3DB
:101F30006F8F00BF00BFFEE706480068401E0549DE
:101F400008600846006820B9002080F3118800BFAF
:101F500000BF70478400002070B506463546002E4D
:101F60003BD0083D2C466068C00F50B900BFA02090
:101F700080F31188BFF34F8FBFF36F8F00BF00BF97
:101F8000FEE7206808B9012000E0002050B900BF3A
:101F9000A02080F31188BFF34F8FBFF36F8F00BF76
:101FA00000BFFEE76068C00FB8B12068A8B96068DC
:101FB00020F00040606000F033FA0849606809686A
:101FC0000844064908602046FFF736FC04480068CC
:101FD000401C0349086000F0B3FE70BD740000208F
:101FE000800000200C480D490860084600686FF02A
:101FF0007F41B1FBF0F00A4908605E2009490860A2
:1020000000204FF0E021086188610348401E4861CC
:102010000720086170470000804F120088000020F0
:102020008C000020900000202DE9F04704464C4829
:102030000068844201D94A48046872B6BFF34F8FE2
:10204000BFF36F8FFFF7EAF808B962B686E00620A3
:102050004FF0E0210861084687690FB941480768D9
:10206000601E4049096801FB00753F48006800F0A8
:10207000806030B14FF000703B490860394800681B
:102080002D1A3A480068854202D9384800682D1A4E
:102090004FF0E020456100204FF0E02188610846C4
:1020A000006940F001000861A046404600F060F879
:1020B000B8F1000404D0BFF34F8F30BFBFF36F8F70
:1020C00062B6BFF34F8FBFF36F8F72B6BFF34F8F00
:1020D000BFF36F8F06204FF0E021086108460069CA
:1020E00000F48030B8B11F490968491E4FF0E02262
:1020F0009269AA1A881A1D490968884203D91949A0
:102100000968884202D917490968481E4FF0E02142
:102110004861661E14E04FF0E020876911480068AE
:102120006043A0EB07090F480068B9FBF0F6701C8C
:102130000C4909684843A0EB09004FF0E0214861D1
:1021400000204FF0E0218861072008610548006801
:10215000401E4861304600F00DF962B6BDE8F087D8
:102160008C0000208800002004ED00E0900000209A
:1021700070472DE9F04105460E4617462C46FFF7FD
:10218000A3FE94F94400401C10B9002084F84400D8
:1021900094F94500401C10B9002084F84500FFF771
:1021A000BDFEA06B28B93A46314604F1240000F088
:1021B00061F82046FFF741FDBDE8F08170B50446A7
:1021C0000025D4B11248006808B9012000E00020C1
:1021D00050B900BFA02080F31188BFF34F8FBFF329
:1021E0006F8F00BF00BFFEE700F01AF90021204604
:1021F000FFF782F800F0A4FD05463DB94FF080508E
:1022000004490860BFF34F8FBFF36F8F70BD0000AC
:102210005000002004ED00E0034909680160034913
:1022200009684160704700003C0000202800002041
:1022300001200149086070473800002070B504464D
:102240000D4654B900BFA02080F31188BFF34F8F13
:10225000BFF36F8F00BF00BFFEE70548016818316C
:102260002046FFF717FE01212846FFF745F870BD0D
:102270001400002070B504460E46154654B900BF40
:10228000A02080F31188BFF34F8FBFF36F8F00BF83
:1022900000BFFEE760680F490968C8610D498268A0
:1022A00009680A620B490968183182685160094956
:1022B000096818318160074909688C622168491CE6
:1022C00021600DB14FF0FF3629463046FFF714F874
:1022D00070BD0000140000201CB51E4800210B46F4
:1022E0006422CDE900101CA11D4800F069FB0446E2
:1022F000012C02D100F0E0FD0446012C15D100BFF5
:10230000A02080F31188BFF34F8FBFF36F8F00BF02
:102310004FF0FF3013490860012013490860002086
:102320001249086000F0E6F810E0601C08B10120D6
:1023300000E0002050B900BFA02080F31188BFF357
:102340004F8FBFF36F8F00BF00BFFEE708480068E4
:102350001CBD00004800002049444C45000000001E
:102360005916000044000020300000202800002002
:102370004C00002010B5044625480068204425493B
:102380000968884201D8012000E0002050B900BF50
:10239000A02080F31188BFF34F8FBFF36F8F00BF72
:1023A00000BFFEE71A48006820441A4909688842BD
:1023B00027D11948006850B900BFA02080F31188C8
:1023C000BFF34F8FBFF36F8F00BF00BFFEE70CB1AD
:1023D000012000E0002050B900BFA02080F3118848
:1023E000BFF34F8FBFF36F8F00BF00BFFEE7FFF754
:1023F0006BFD0A480068401C08490860FFF78EFD25
:10240000641E0348006820440149086010BD0000B4
:10241000280000204400002050000020340000204C
:1024200002480068401C01490860704750000020C5
:1024300070B52B48006818B101202A4908604DE0AA
:1024400000202849086028480068046B4FF0A53533
:102450002068B0F1A53F0BD16068B0F1A53F07D16E
:10246000A068B0F1A53F03D1E068B0F1A53F05D069
:102470001D48016834310068FFF7F0FC1B48006814
:10248000B0FA80F0C0F11F0101EB8100184A52F848
:10249000200008B1012000E0002050B900BFA020BA
:1024A00080F31188BFF34F8FBFF36F8F00BF00BF62
:1024B000FEE701EB81020E4B03EB8200426852689B
:1024C000426000F108024368934202D142685268B8
:1024D00042604268D268044B1A6000BF70BD0000C1
:1024E0005000002038000020140000202C000020A4
:1024F0009C0000201CB55C4800685C49884201D003
:10250000012000E0002050B900BFA02080F3118816
:10251000BFF34F8FBFF36F8F00BF00BFFEE752487E
:1025200000685249491E884201D0012000E0002085
:1025300050B900BFA02080F31188BFF34F8FBFF3C5
:102540006F8F00BF00BFFEE7494908460078019041
:10255000FF200A4610700846007800909DF80000A1
:1025600000F0E0009DF80020904201D1012000E041
:10257000002050B900BFA02080F31188BFF34F8F17
:10258000BFF36F8F00BF00BFFEE79DF8000000F0B3
:10259000A000384A10700720374A106009E036481A
:1025A0000068401E344A10609DF800004006000E8E
:1025B00000909DF8000000F080008028EFD02E48A9
:1025C0000068C0F10700032801D1012000E00020CD
:1025D00050B900BFA02080F31188BFF34F8FBFF325
:1025E0006F8F00BF00BFFEE723480068C0F10700FF
:1025F000032801D1012000E0002050B900BFA02035
:1026000080F31188BFF34F8FBFF36F8F00BF00BF00
:10261000FEE7194800680002174A1060104600885B
:1026200000F4E0601060124A019810700E482030EB
:10263000006840F460000C492031086008460068DA
:1026400040F060400860FFF7CDFC00200B490860B7
:10265000FDF748FE0A48006840F04040084908601D
:10266000FDF72CFE00201CBD00ED00E071C20F4103
:1026700000E400E094000020980000208400002086
:1026800034EF00E02DE9F84305460E4617460024D6
:10269000E5B1601EB0FBF5F0B04217D305FB06F0C4
:1026A00010F1510F12D805FB06F808F15000FFF7A2
:1026B00003FB0446B4B1A14609F150093B464A4622
:1026C000314628460094FFF707F80BE054B900BFE5
:1026D000A02080F31188BFF34F8FBFF36F8F00BF2F
:1026E00000BFFEE72046BDE8F88300002DE9F04179
:1026F00005460E4601272C4654B900BFA02080F3A2
:102700001188BFF34F8FBFF36F8F00BF00BFFEE78D
:10271000002C42D0E06B00283FD04FF0FF31E06B3F
:10272000B1FBF0F0216C884237D3FFF7CDFBD4E941
:102730000F12206801FB0200A0600020A063206847
:102740006060E06B401E226C216800FB0211E160BA
:10275000FF2084F8440084F845009EB9206908B938
:10276000012000E00020A8B904F1100000F056FAA2
:1027700080B14FF0805013490860BFF34F8FBFF313
:102780006F8F07E004F11000FFF774FB04F12400E1
:10279000FFF770FBFFF7C2FB00E000270FB101203D
:1027A00000E0002050B900BFA02080F31188BFF3E3
:1027B0004F8FBFF36F8F00BF00BFFEE73846BDE805
:1027C000F081000004ED00E02DE9F74183B00546FB
:1027D0000E464FF000082C4654B900BFA02080F3ED
:1027E0001188BFF34F8FBFF36F8F00BF00BFFEE7AD
:1027F0000EB9206C08B9012000E0002050B900BFDC
:10280000A02080F31188BFF34F8FBFF36F8F00BFFD
:1028100000BFFEE700F008F908B9059808B90120E3
:1028200000E0002050B900BFA02080F31188BFF362
:102830004F8FBFF36F8F00BF00BFFEE700BFFFF7F2
:1028400043FBA76BF7B131462046FEF775FE781EB5
:10285000A063206908B9012000E0002060B904F1FC
:10286000100000F0DBF938B14FF080502F490860BC
:10287000BFF34F8FBFF36F8FFFF750FB012006B000
:10288000BDE8F081059818B9FFF748FB0020F6E78E
:10289000B8F1000F04D101A8FFF7BEFC4FF001080A
:1028A000FFF73CFBFFF7BCFDFFF70EFB94F944007C
:1028B000401C10B9002084F8440094F94500401CE5
:1028C00010B9002084F84500FFF728FB05A901A8EE
:1028D00000F02EF8F0B92046FFF70EF8A0B104F191
:1028E00024000599FFF7AAFC2046FFF7A6F900F09F
:1028F00027FA0028A3D14FF080500C490860BFF39D
:102900004F8FBFF36F8F9AE72046FFF796F900F0DD
:1029100017FA94E72046FFF790F900F011FA2046E5
:10292000FEF7EAFF00288AD00020A8E704ED00E0C7
:1029300070B505460C4655B900BFA02080F311883C
:10294000BFF34F8FBFF36F8F00BF00BFFEE754B9D7
:1029500000BFA02080F31188BFF34F8FBFF36F8FAC
:1029600000BF00BFFEE7FFF7AFFA134802686868D0
:10297000131A2068401C08B9002619E00F4928687E
:102980000968884206D06868904203D80126002072
:1029900020600DE02068984207D92068C01A2060A6
:1029A0002846FFF739FC002602E0002020600126BF
:1029B000FFF7B4FA304670BD280000203C0000202C
:1029C0002DE9FF4F85B0804689461746DDE912ABF9
:1029D000B800FFF771F9064676B15820FFF76CF999
:1029E00004462CB158212046FDF745FD266304E03E
:1029F0003046FFF7B1FA00E000247CB10020CDE9B9
:102A000000ABCDE902403A4649464046089BFEF7F6
:102A100078FE2046FEF7D0FC012501E04FF0FF359F
:102A2000284609B0BDE8F08F0549096809B90120B9
:102A300005E00449096809B9022000E00020704758
:102A40003000002050000020014908687047000055
:102A5000280000202DE9F0414FF00008644800688C
:102A600000287DD163480068451C6248056015BB9D
:102A700061480068006808B9012000E0002050B9F2
:102A800000BFA02080F31188BFF34F8FBFF36F8F7B
:102A900000BF00BFFEE7584807685848006856491D
:102AA00008605648076056480068401C5449086052
:102AB000FFF746F800BF53480068854277D300BF50
:102AC0004D480068006808B9012000E0002020B1EE
:102AD0004FF0FF304B49086068E047480068C06825
:102AE000C4686668B54202D2464806605EE0606926
:102AF000D4E902128A60D4E902214A60211D4268A9
:102B00008A4201D1E1684160002262610168491E88
:102B10000160A06A98B1A06AD4E907128A60D4E97A
:102B200007214A6004F1180142688A4201D1216AF2
:102B300041600022A2620168491E016000BF94F852
:102B40002C10012088403049096808432E4908604C
:102B5000E16A01EB81012D4A02EB8101486800E046
:102B60003CE0A0608268E260211D82685160816063
:102B7000E16A01EB8101254A02EB81026261E16AAF
:102B800001EB8101214A52F82110491CE26A02EB53
:102B900082021E4B43F822101D49E06A0968C96A87
:102BA00088428DD94FF001088AE700E000BF18483D
:102BB0000068C06A00EB8000144951F82000012829
:102BC00001D94FF001081348006808B9FFF751F91F
:102BD0001148006808B14FF0010806E00D48006890
:102BE000401C0C490860FFF744F94046BDE8F081FD
:102BF0005000002028000020180000201C000020A9
:102C00003C000020440000202C0000209C000020FC
:102C100014000020340000203800002070B5064663
:102C2000F068C46854B900BFA02080F31188BFF3D6
:102C30004F8FBFF36F8F00BF00BFFEE7A06AD4E9DC
:102C400007128A60D4E907214A6004F1180142683A
:102C50008A4201D1216A41600022A2620168491EB4
:102C600001603148006800283FD16069D4E9021250
:102C70008A60D4E902214A60211D42688A4201D15A
:102C8000E1684160002262610168491E016094F8B8
:102C90002C10012088402549096808432349086011
:102CA000E16A01EB8101224A02EB81014868A060E0
:102CB0008268E260211D826851608160E16A01EBF7
:102CC00081011B4A02EB81026261E16A01EB810131
:102CD000174A52F82110491CE26A02EB8202144B97
:102CE00043F82210FEF72CFF10E012494868E0611B
:102CF0008268226204F118018268516081600D4A85
:102D0000A26211460968491C116000BF0A49E06AC5
:102D10000968C96A884204D9012501200749086069
:102D200000E00025284670BD500000202C00002047
:102D30009C00002028010020140000203800002002
:102D400070B5002400265348006850B900BFA02089
:102D500080F31188BFF34F8FBFF36F8F00BF00BFA9
:102D6000FEE7FFF7B1F84B480068401E494908608C
:102D70000846006800287DD147480068002879D0BF
:102D80005BE04648C068C468A06AD4E907128A605C
:102D9000D4E907214A6004F1180142688A4201D14E
:102DA000216A41600022A2620168491E01606069D7
:102DB000D4E902128A60D4E902214A60211D4268E6
:102DC0008A4201D1E1684160002262610168491EC6
:102DD000016094F82C1001208840314909680843AB
:102DE0002F490860E16A01EB81012E4A02EB810163
:102DF0004868A0608268E260211D8268516081603D
:102E0000E16A01EB8101274A02EB81026261E16A1A
:102E100001EB8101234A52F82110491CE26A02EBBE
:102E20008202204B43F822101F49E06A0968C96AF0
:102E3000884202D301201D4908601848006808B97B
:102E4000012000E0002000289BD00CB1FEF778FEA6
:102E50001748056865B100BFFFF7FCFD10B1012000
:102E6000124908606D1E002DF6D10020104908603F
:102E70000E4800E009E0006838B1012630070D492E
:102E80000860BFF34F8FBFF36F8FFFF747F83046EF
:102E900070BD000050000020240000202801002008
:102EA0002C0000209C00002014000020380000208E
:102EB0003400002004ED00E01CB50024FEF7F2FA17
:102EC0000D48006850B10D48032100236422CDE96C
:102ED00000100BA10C48FFF773FD044654B900BF66
:102EE000A02080F31188BFF34F8FBFF36F8F00BF17
:102EF00000BFFEE720461CBD5C00002060000020F3
:102F0000546D722053766300211C00004FF0407016
:102F1000E1EE100A704700004431000000C000409C
:102F200000D0004000E00040001800F0011800F060
:102F3000021800F000688909001C4E0E404B4C003E
:102F4000808D5B0000127A0080969800001BB7000D
:102F50000024F40080A81201002D310100366E011A
:102F600040787D01400000000000000000010000EA
:102F7000A000000002000000000100002800000086
:102F80000000000000010000200000000000000020
:102F900000010000500000000200000000010000DD
:102FA000140000000000000000010000A00000006C
:102FB00008000000000100001000000000000000F8
:102FC00000010000280000000200000000010000D5
:102FD00040000000040000000001000000000000AC
:102FE00000000000000000000000000000000000E1
:102FF00000000000000000000000000000000000D1
:1030000000000000000000000000000000000000C0
:1030100000000000000000000000000000000000B0
:1030200000000000000000000000000000000000A0
:103030000000000000000000000000006000000030
:10304000000000000001000050000000000000002F
:10305000000100003C000000000000000001000032
:103060003000000000000000000100002800000007
:1030700000000000000100001E0000000000000031
:1030800000010000500000000200000000010000EC
:103090001800000000000000000100001400000003
:1030A00000000000000100006000000004000000BB
:1030B000000100000000000000000000000000000F
:1030C0000000000000000000000000000000000000
:1030D00000000000000000000000000000000000F0
:1030E00000000000000000000000000000000000E0
:1030F00000000000000000000000000000000000D0
:1031000000000000000000000000000000000000BF
:10311000000000000024F40030003000005A620279
:103120009100910000879303D200D20000B4C40440
:103130001301130100E1F50554015401000E2707A6
:103140009501950130313233343536373839616283
:103150006364656600000000783100000000002014
:103160009C00000038020000143200009C00002087
:1031700054CB000054020000000000000024F400C2
:10318000000000000000000000000000000000003F
:10319000000000000000000000000000000000002F
:1031A000000000000000000000000000000000001F
:1031B000000000000000000000000000000000000F
:1031C00000000000040000000000000000000000FB
:1031D00000000000000000000000000000000000EF
:1031E00000000000000000000000000000000000DF
:1031F000000000000000000000000000AAAAAAAA27
:1032000000000000000000000000000000000000BE
:0432100000000000BA
:04000005000001FDF9
:00000001FF
